{
  "_format": "hh-sol-artifact-1",
  "contractName": "SimpleMembership",
  "sourceName": "contracts/basic/SimpleMembership.sol",
  "abi": [
    {
      "inputs": [],
      "stateMutability": "nonpayable",
      "type": "constructor"
    },
    {
      "inputs": [],
      "name": "ZamaProtocolUnsupported",
      "type": "error"
    },
    {
      "anonymous": false,
      "inputs": [
        {
          "indexed": true,
          "internalType": "address",
          "name": "member",
          "type": "address"
        }
      ],
      "name": "MemberRegistered",
      "type": "event"
    },
    {
      "anonymous": false,
      "inputs": [
        {
          "indexed": true,
          "internalType": "address",
          "name": "member",
          "type": "address"
        }
      ],
      "name": "MemberStatusUpdated",
      "type": "event"
    },
    {
      "inputs": [],
      "name": "confidentialProtocolId",
      "outputs": [
        {
          "internalType": "uint256",
          "name": "",
          "type": "uint256"
        }
      ],
      "stateMutability": "view",
      "type": "function"
    },
    {
      "inputs": [],
      "name": "getMemberStatus",
      "outputs": [
        {
          "internalType": "euint32",
          "name": "",
          "type": "bytes32"
        }
      ],
      "stateMutability": "view",
      "type": "function"
    },
    {
      "inputs": [],
      "name": "getTotalMembers",
      "outputs": [
        {
          "internalType": "uint32",
          "name": "",
          "type": "uint32"
        }
      ],
      "stateMutability": "view",
      "type": "function"
    },
    {
      "inputs": [
        {
          "internalType": "address",
          "name": "member",
          "type": "address"
        }
      ],
      "name": "isMember",
      "outputs": [
        {
          "internalType": "bool",
          "name": "",
          "type": "bool"
        }
      ],
      "stateMutability": "view",
      "type": "function"
    },
    {
      "inputs": [
        {
          "internalType": "externalEuint32",
          "name": "encryptedStatus",
          "type": "bytes32"
        },
        {
          "internalType": "bytes",
          "name": "inputProof",
          "type": "bytes"
        }
      ],
      "name": "registerMember",
      "outputs": [],
      "stateMutability": "nonpayable",
      "type": "function"
    },
    {
      "inputs": [
        {
          "internalType": "externalEuint32",
          "name": "newStatus",
          "type": "bytes32"
        },
        {
          "internalType": "bytes",
          "name": "inputProof",
          "type": "bytes"
        }
      ],
      "name": "updateMemberStatus",
      "outputs": [],
      "stateMutability": "nonpayable",
      "type": "function"
    }
  ],
  "bytecode": "0x608060405234801561001057600080fd5b506100c561001c6100d7565b80517f9e7b61f58c47dc699ac88507c4f5bb9f121c03808c5676a8078fe583e464970080546001600160a01b03199081166001600160a01b039384161790915560208301517f9e7b61f58c47dc699ac88507c4f5bb9f121c03808c5676a8078fe583e46497018054831691841691909117905560408301517f9e7b61f58c47dc699ac88507c4f5bb9f121c03808c5676a8078fe583e46497028054909216921691909117905550565b6002805463ffffffff1916905561024a565b6040805160608101825260008082526020820181905291810191909152466001036101325750604080516060808201835260008083526020808401829052928401819052835191820184528082529181018290529182015290565b4662aa36a7036101b25750604080516060808201835260008083526020808401829052928401528251908101835273f0ffdc93b7e186bc2f8cb3daa75d86d1930a433d81527392c920834ec8941d2c77d188936e1f7a6f49c1279181019190915273be0e383937d564d7ff0bc3b46c51f0bf8d5c311a9181019190915290565b46617a6903610231575060408051606080820183526000808352602080840182905292840152825190810183527350157cffd6bbfa2dece204a89ec419c23ef5755d815273e3a9105a3a932253a70f126eb1e3b589c643dd249181019190915273be0e383937d564d7ff0bc3b46c51f0bf8d5c311a9181019190915290565b6040516373cac13b60e01b815260040160405180910390fd5b6107e1806102596000396000f3fe608060405234801561001057600080fd5b50600436106100625760003560e01c80638927b030146100675780638a55d5ce146100825780638f18030514610097578063a230c524146100af578063e35d83e4146100eb578063f7dc0d7a146100f3575b600080fd5b61006f610106565b6040519081526020015b60405180910390f35b610095610090366004610631565b610115565b005b60025460405163ffffffff9091168152602001610079565b6100db6100bd3660046106ad565b6001600160a01b031660009081526020819052604090205460ff1690565b6040519015158152602001610079565b61006f610224565b610095610101366004610631565b610297565b600061011061040a565b905090565b3360009081526020819052604090205460ff166101795760405162461bcd60e51b815260206004820152601e60248201527f53696d706c654d656d626572736869703a206e6f742061206d656d626572000060448201526064015b60405180910390fd5b60006101bb8484848080601f01602080910402602001604051908101604052809392919081815260200183838082843760009201919091525061044192505050565b33600090815260016020526040902081905590506101d881610456565b50336000818152600160205260409020546101f291610466565b5060405133907fed3b080e4d842c5bcc70888aa8a4815f1499fd7bcaeca0de9bd04d8aaa5cdbfb90600090a250505050565b3360009081526020819052604081205460ff166102835760405162461bcd60e51b815260206004820152601e60248201527f53696d706c654d656d626572736869703a206e6f742061206d656d62657200006044820152606401610170565b503360009081526001602052604090205490565b3360009081526020819052604090205460ff16156103035760405162461bcd60e51b8152602060048201526024808201527f53696d706c654d656d626572736869703a20616c726561647920726567697374604482015263195c995960e21b6064820152608401610170565b60006103458484848080601f01602080910402602001604051908101604052809392919081815260200183838082843760009201919091525061044192505050565b336000908152600160208181526040808420859055908390528220805460ff191690911790556002805492935063ffffffff9092169190610385836106d6565b825463ffffffff9182166101009390930a928302919092021990911617905550336000908152600160205260409020546103be90610456565b50336000818152600160205260409020546103d891610466565b5060405133907f92fabfa210df88d92c2f5a07ddd43a985b208d8b19b7a78ba1284aa4b287d86290600090a250505050565b60004660010361041a5750600190565b4662aa36a70361042b575061271190565b46617a690361043b575060001990565b50600090565b600061044f83836004610479565b9392505050565b600061046282306105a2565b5090565b600061047283836105a2565b5090919050565b7f9e7b61f58c47dc699ac88507c4f5bb9f121c03808c5676a8078fe583e46497015460405163045fc19560e11b81526000917f9e7b61f58c47dc699ac88507c4f5bb9f121c03808c5676a8078fe583e4649700916001600160a01b03909116906308bf832a906104f3908890339089908990600401610707565b6020604051808303816000875af1158015610512573d6000803e3d6000fd5b505050506040513d601f19601f820116820180604052508101906105369190610792565b8154604051630f8e573b60e21b8152600481018390523360248201529193506001600160a01b031690633e395cec90604401600060405180830381600087803b15801561058257600080fd5b505af1158015610596573d6000803e3d6000fd5b50505050509392505050565b60007f9e7b61f58c47dc699ac88507c4f5bb9f121c03808c5676a8078fe583e46497008054604051635ca4b5b160e11b8152600481018690526001600160a01b03858116602483015292935091169063b9496b6290604401600060405180830381600087803b15801561061457600080fd5b505af1158015610628573d6000803e3d6000fd5b50505050505050565b60008060006040848603121561064657600080fd5b83359250602084013567ffffffffffffffff8082111561066557600080fd5b818601915086601f83011261067957600080fd5b81358181111561068857600080fd5b87602082850101111561069a57600080fd5b6020830194508093505050509250925092565b6000602082840312156106bf57600080fd5b81356001600160a01b038116811461044f57600080fd5b600063ffffffff8083168181036106fd57634e487b7160e01b600052601160045260246000fd5b6001019392505050565b8481526000602060018060a01b038616602084015260806040840152845180608085015260005b8181101561074a5786810183015185820160a00152820161072e565b50600060a0828601015260a0601f19601f830116850101925050506054831061078357634e487b7160e01b600052602160045260246000fd5b82606083015295945050505050565b6000602082840312156107a457600080fd5b505191905056fea2646970667358221220e77cee34dddec8306e16d02fa16ffd3082e5ee71aca73859de77b212489c79de64736f6c63430008180033",
  "linkReferences": {},
  "deployedLinkReferences": {}
}