{
  "_format": "hh-sol-artifact-1",
  "contractName": "PublicDecryptSingleValue",
  "sourceName": "contracts/decryption/PublicDecryptSingleValue.sol",
  "abi": [
    {
      "inputs": [],
      "name": "ZamaProtocolUnsupported",
      "type": "error"
    },
    {
      "anonymous": false,
      "inputs": [
        {
          "indexed": true,
          "internalType": "address",
          "name": "owner",
          "type": "address"
        }
      ],
      "name": "PublicValueStored",
      "type": "event"
    },
    {
      "anonymous": false,
      "inputs": [
        {
          "indexed": true,
          "internalType": "address",
          "name": "owner",
          "type": "address"
        },
        {
          "indexed": false,
          "internalType": "uint32",
          "name": "decryptedValue",
          "type": "uint32"
        }
      ],
      "name": "ValueDecrypted",
      "type": "event"
    },
    {
      "inputs": [
        {
          "internalType": "address",
          "name": "userA",
          "type": "address"
        },
        {
          "internalType": "address",
          "name": "userB",
          "type": "address"
        }
      ],
      "name": "areValuesEqual",
      "outputs": [
        {
          "internalType": "bool",
          "name": "",
          "type": "bool"
        }
      ],
      "stateMutability": "view",
      "type": "function"
    },
    {
      "inputs": [],
      "name": "confidentialProtocolId",
      "outputs": [
        {
          "internalType": "uint256",
          "name": "",
          "type": "uint256"
        }
      ],
      "stateMutability": "view",
      "type": "function"
    },
    {
      "inputs": [
        {
          "internalType": "address",
          "name": "user",
          "type": "address"
        }
      ],
      "name": "getDecryptedValue",
      "outputs": [
        {
          "internalType": "uint32",
          "name": "",
          "type": "uint32"
        }
      ],
      "stateMutability": "view",
      "type": "function"
    },
    {
      "inputs": [],
      "name": "getPublicValue",
      "outputs": [
        {
          "internalType": "euint32",
          "name": "",
          "type": "bytes32"
        }
      ],
      "stateMutability": "view",
      "type": "function"
    },
    {
      "inputs": [
        {
          "internalType": "externalEuint32",
          "name": "encryptedValue",
          "type": "bytes32"
        },
        {
          "internalType": "bytes",
          "name": "inputProof",
          "type": "bytes"
        }
      ],
      "name": "storePublicValue",
      "outputs": [],
      "stateMutability": "nonpayable",
      "type": "function"
    },
    {
      "inputs": [
        {
          "internalType": "uint32",
          "name": "decryptedValue",
          "type": "uint32"
        }
      ],
      "name": "submitDecryptedValue",
      "outputs": [],
      "stateMutability": "nonpayable",
      "type": "function"
    },
    {
      "inputs": [
        {
          "internalType": "externalEuint32",
          "name": "newValue",
          "type": "bytes32"
        },
        {
          "internalType": "bytes",
          "name": "inputProof",
          "type": "bytes"
        }
      ],
      "name": "updateValue",
      "outputs": [],
      "stateMutability": "nonpayable",
      "type": "function"
    }
  ],
  "bytecode": "0x608060405234801561001057600080fd5b506100c561001c6100ca565b80517f9e7b61f58c47dc699ac88507c4f5bb9f121c03808c5676a8078fe583e464970080546001600160a01b03199081166001600160a01b039384161790915560208301517f9e7b61f58c47dc699ac88507c4f5bb9f121c03808c5676a8078fe583e46497018054831691841691909117905560408301517f9e7b61f58c47dc699ac88507c4f5bb9f121c03808c5676a8078fe583e46497028054909216921691909117905550565b61023d565b6040805160608101825260008082526020820181905291810191909152466001036101255750604080516060808201835260008083526020808401829052928401819052835191820184528082529181018290529182015290565b4662aa36a7036101a55750604080516060808201835260008083526020808401829052928401528251908101835273f0ffdc93b7e186bc2f8cb3daa75d86d1930a433d81527392c920834ec8941d2c77d188936e1f7a6f49c1279181019190915273be0e383937d564d7ff0bc3b46c51f0bf8d5c311a9181019190915290565b46617a6903610224575060408051606080820183526000808352602080840182905292840152825190810183527350157cffd6bbfa2dece204a89ec419c23ef5755d815273e3a9105a3a932253a70f126eb1e3b589c643dd249181019190915273be0e383937d564d7ff0bc3b46c51f0bf8d5c311a9181019190915290565b6040516373cac13b60e01b815260040160405180910390fd5b61097b8061024c6000396000f3fe608060405234801561001057600080fd5b506004361061007d5760003560e01c8063700e809b1161005b578063700e809b146100d7578063778e2b82146100fa5780638927b03014610110578063f5aed01f1461011857600080fd5b8063223b1185146100825780633d5fa523146100af578063639a3589146100c4575b600080fd5b61009561009036600461076f565b61012b565b60405163ffffffff90911681526020015b60405180910390f35b6100c26100bd36600461078a565b61018e565b005b6100c26100d23660046107b0565b610219565b6100ea6100e536600461082c565b6102d9565b60405190151581526020016100a6565b610102610405565b6040519081526020016100a6565b610102610448565b6100c26101263660046107b0565b610457565b6001600160a01b03811660009081526001602052604081205460ff1661016c5760405162461bcd60e51b81526004016101639061085f565b60405180910390fd5b506001600160a01b031660009081526002602052604090205463ffffffff1690565b3360009081526001602052604090205460ff166101bd5760405162461bcd60e51b81526004016101639061085f565b33600081815260026020908152604091829020805463ffffffff191663ffffffff861690811790915591519182527f1ffb7fb5f0a92e2addcdd96d04dc5f87122e0fbd0a9a48090e65f42bdb4d5b0b910160405180910390a250565b3360009081526001602052604090205460ff166102485760405162461bcd60e51b81526004016101639061085f565b600061028a8484848080601f01602080910402602001604051908101604052809392919081815260200183838082843760009201919091525061053f92505050565b33600090815260208190526040902081905590506102a781610554565b5060405133907fb95e034f1958c4f736c4308d740b8ead8f2238c7adebb49aa17784f04766982990600090a250505050565b6001600160a01b03821660009081526001602052604081205460ff166103565760405162461bcd60e51b815260206004820152602c60248201527f5075626c69634465637279707453696e676c6556616c75653a2075736572412060448201526b686173206e6f2076616c756560a01b6064820152608401610163565b6001600160a01b03821660009081526001602052604090205460ff166103d35760405162461bcd60e51b815260206004820152602c60248201527f5075626c69634465637279707453696e676c6556616c75653a2075736572422060448201526b686173206e6f2076616c756560a01b6064820152608401610163565b506001600160a01b0390811660009081526002602052604080822054939092168152205463ffffffff91821691161490565b3360009081526001602052604081205460ff166104345760405162461bcd60e51b81526004016101639061085f565b503360009081526020819052604090205490565b6000610452610564565b905090565b3360009081526001602052604090205460ff16156104c65760405162461bcd60e51b815260206004820152602660248201527f5075626c69634465637279707453696e676c6556616c75653a2076616c75652060448201526565786973747360d01b6064820152608401610163565b60006105088484848080601f01602080910402602001604051908101604052809392919081815260200183838082843760009201919091525061053f92505050565b336000908152602081815260408083208481556001808452918420805460ff1916909217909155919052549091506102a790610554565b600061054d8383600461059b565b9392505050565b600061056082306106c4565b5090565b6000466001036105745750600190565b4662aa36a703610585575061271190565b46617a6903610595575060001990565b50600090565b7f9e7b61f58c47dc699ac88507c4f5bb9f121c03808c5676a8078fe583e46497015460405163045fc19560e11b81526000917f9e7b61f58c47dc699ac88507c4f5bb9f121c03808c5676a8078fe583e4649700916001600160a01b03909116906308bf832a906106159088903390899089906004016108a1565b6020604051808303816000875af1158015610634573d6000803e3d6000fd5b505050506040513d601f19601f82011682018060405250810190610658919061092c565b8154604051630f8e573b60e21b8152600481018390523360248201529193506001600160a01b031690633e395cec90604401600060405180830381600087803b1580156106a457600080fd5b505af11580156106b8573d6000803e3d6000fd5b50505050509392505050565b60007f9e7b61f58c47dc699ac88507c4f5bb9f121c03808c5676a8078fe583e46497008054604051635ca4b5b160e11b8152600481018690526001600160a01b03858116602483015292935091169063b9496b6290604401600060405180830381600087803b15801561073657600080fd5b505af115801561074a573d6000803e3d6000fd5b50505050505050565b80356001600160a01b038116811461076a57600080fd5b919050565b60006020828403121561078157600080fd5b61054d82610753565b60006020828403121561079c57600080fd5b813563ffffffff8116811461054d57600080fd5b6000806000604084860312156107c557600080fd5b83359250602084013567ffffffffffffffff808211156107e457600080fd5b818601915086601f8301126107f857600080fd5b81358181111561080757600080fd5b87602082850101111561081957600080fd5b6020830194508093505050509250925092565b6000806040838503121561083f57600080fd5b61084883610753565b915061085660208401610753565b90509250929050565b60208082526022908201527f5075626c69634465637279707453696e676c6556616c75653a206e6f2076616c604082015261756560f01b606082015260800190565b8481526000602060018060a01b038616602084015260806040840152845180608085015260005b818110156108e45786810183015185820160a0015282016108c8565b50600060a0828601015260a0601f19601f830116850101925050506054831061091d57634e487b7160e01b600052602160045260246000fd5b82606083015295945050505050565b60006020828403121561093e57600080fd5b505191905056fea2646970667358221220be8a0b2076756d94a9acd91fa1c9cb4ad5ff0e2d6aa399466c86925b8cd9ab9564736f6c63430008180033",
  "linkReferences": {},
  "deployedLinkReferences": {}
}