{
  "_format": "hh-sol-artifact-1",
  "contractName": "ConfidentialVesting",
  "sourceName": "contracts/openzeppelin/ConfidentialVesting.sol",
  "abi": [
    {
      "inputs": [],
      "stateMutability": "nonpayable",
      "type": "constructor"
    },
    {
      "inputs": [],
      "name": "ZamaProtocolUnsupported",
      "type": "error"
    },
    {
      "anonymous": false,
      "inputs": [
        {
          "indexed": true,
          "internalType": "address",
          "name": "beneficiary",
          "type": "address"
        }
      ],
      "name": "TokensReleased",
      "type": "event"
    },
    {
      "anonymous": false,
      "inputs": [
        {
          "indexed": true,
          "internalType": "address",
          "name": "beneficiary",
          "type": "address"
        }
      ],
      "name": "VestingRevoked",
      "type": "event"
    },
    {
      "anonymous": false,
      "inputs": [
        {
          "indexed": true,
          "internalType": "address",
          "name": "beneficiary",
          "type": "address"
        },
        {
          "indexed": false,
          "internalType": "uint64",
          "name": "startTime",
          "type": "uint64"
        },
        {
          "indexed": false,
          "internalType": "uint64",
          "name": "duration",
          "type": "uint64"
        }
      ],
      "name": "VestingScheduleCreated",
      "type": "event"
    },
    {
      "inputs": [
        {
          "internalType": "address",
          "name": "beneficiary",
          "type": "address"
        }
      ],
      "name": "calculateVestedAmount",
      "outputs": [
        {
          "internalType": "euint32",
          "name": "",
          "type": "bytes32"
        }
      ],
      "stateMutability": "nonpayable",
      "type": "function"
    },
    {
      "inputs": [],
      "name": "confidentialProtocolId",
      "outputs": [
        {
          "internalType": "uint256",
          "name": "",
          "type": "uint256"
        }
      ],
      "stateMutability": "view",
      "type": "function"
    },
    {
      "inputs": [
        {
          "internalType": "address",
          "name": "beneficiary",
          "type": "address"
        },
        {
          "internalType": "externalEuint32",
          "name": "encryptedAmount",
          "type": "bytes32"
        },
        {
          "internalType": "bytes",
          "name": "inputProof",
          "type": "bytes"
        },
        {
          "internalType": "uint64",
          "name": "startTime",
          "type": "uint64"
        },
        {
          "internalType": "uint64",
          "name": "duration",
          "type": "uint64"
        },
        {
          "internalType": "uint64",
          "name": "cliff",
          "type": "uint64"
        },
        {
          "internalType": "bool",
          "name": "revocable",
          "type": "bool"
        }
      ],
      "name": "createVestingSchedule",
      "outputs": [],
      "stateMutability": "nonpayable",
      "type": "function"
    },
    {
      "inputs": [],
      "name": "getDuration",
      "outputs": [
        {
          "internalType": "uint64",
          "name": "",
          "type": "uint64"
        }
      ],
      "stateMutability": "view",
      "type": "function"
    },
    {
      "inputs": [],
      "name": "getReleasedAmount",
      "outputs": [
        {
          "internalType": "euint32",
          "name": "",
          "type": "bytes32"
        }
      ],
      "stateMutability": "view",
      "type": "function"
    },
    {
      "inputs": [],
      "name": "getStartTime",
      "outputs": [
        {
          "internalType": "uint64",
          "name": "",
          "type": "uint64"
        }
      ],
      "stateMutability": "view",
      "type": "function"
    },
    {
      "inputs": [],
      "name": "getTotalAmount",
      "outputs": [
        {
          "internalType": "euint32",
          "name": "",
          "type": "bytes32"
        }
      ],
      "stateMutability": "view",
      "type": "function"
    },
    {
      "inputs": [
        {
          "internalType": "address",
          "name": "beneficiary",
          "type": "address"
        }
      ],
      "name": "hasSchedule",
      "outputs": [
        {
          "internalType": "bool",
          "name": "",
          "type": "bool"
        }
      ],
      "stateMutability": "view",
      "type": "function"
    },
    {
      "inputs": [],
      "name": "isRevoked",
      "outputs": [
        {
          "internalType": "bool",
          "name": "",
          "type": "bool"
        }
      ],
      "stateMutability": "view",
      "type": "function"
    },
    {
      "inputs": [],
      "name": "owner",
      "outputs": [
        {
          "internalType": "address",
          "name": "",
          "type": "address"
        }
      ],
      "stateMutability": "view",
      "type": "function"
    },
    {
      "inputs": [
        {
          "internalType": "address",
          "name": "beneficiary",
          "type": "address"
        }
      ],
      "name": "releasableAmount",
      "outputs": [
        {
          "internalType": "euint32",
          "name": "",
          "type": "bytes32"
        }
      ],
      "stateMutability": "nonpayable",
      "type": "function"
    },
    {
      "inputs": [],
      "name": "release",
      "outputs": [],
      "stateMutability": "nonpayable",
      "type": "function"
    },
    {
      "inputs": [
        {
          "internalType": "address",
          "name": "beneficiary",
          "type": "address"
        }
      ],
      "name": "revoke",
      "outputs": [],
      "stateMutability": "nonpayable",
      "type": "function"
    }
  ],
  "bytecode": "0x608060405234801561001057600080fd5b506100c561001c6100dc565b80517f9e7b61f58c47dc699ac88507c4f5bb9f121c03808c5676a8078fe583e464970080546001600160a01b03199081166001600160a01b039384161790915560208301517f9e7b61f58c47dc699ac88507c4f5bb9f121c03808c5676a8078fe583e46497018054831691841691909117905560408301517f9e7b61f58c47dc699ac88507c4f5bb9f121c03808c5676a8078fe583e46497028054909216921691909117905550565b600180546001600160a01b0319163317905561024f565b6040805160608101825260008082526020820181905291810191909152466001036101375750604080516060808201835260008083526020808401829052928401819052835191820184528082529181018290529182015290565b4662aa36a7036101b75750604080516060808201835260008083526020808401829052928401528251908101835273f0ffdc93b7e186bc2f8cb3daa75d86d1930a433d81527392c920834ec8941d2c77d188936e1f7a6f49c1279181019190915273be0e383937d564d7ff0bc3b46c51f0bf8d5c311a9181019190915290565b46617a6903610236575060408051606080820183526000808352602080840182905292840152825190810183527350157cffd6bbfa2dece204a89ec419c23ef5755d815273e3a9105a3a932253a70f126eb1e3b589c643dd249181019190915273be0e383937d564d7ff0bc3b46c51f0bf8d5c311a9181019190915290565b6040516373cac13b60e01b815260040160405180910390fd5b6114448061025e6000396000f3fe608060405234801561001057600080fd5b50600436106100cf5760003560e01c80638da5cb5b1161008c578063c596f28911610066578063c596f28914610192578063c828371e146101a5578063de1faca7146101ad578063ffa06b2a146101e357600080fd5b80638da5cb5b1461013f5780639a5569a71461016a578063ad2e8c9b1461017257600080fd5b80631726cbc8146100d45780632bc9ed02146100fa57806365ac43411461011257806374a8f1031461011a57806386d1a69f1461012f5780638927b03014610137575b600080fd5b6100e76100e236600461113e565b6101f6565b6040519081526020015b60405180910390f35b610102610230565b60405190151581526020016100f1565b6100e7610293565b61012d61012836600461113e565b6102e0565b005b61012d610498565b6100e7610598565b600154610152906001600160a01b031681565b6040516001600160a01b0390911681526020016100f1565b6100e76105a7565b61017a6105f7565b6040516001600160401b0390911681526020016100f1565b61012d6101a0366004611180565b610657565b61017a610b1f565b6101026101bb36600461113e565b6001600160a01b0316600090815260208190526040902060020154600160d01b900460ff1690565b6100e76101f136600461113e565b610b78565b6001600160a01b03811660009081526020819052604081208161021884610b78565b9050610228818360010154610ce0565b949350505050565b33600090815260208190526040812060020154600160d01b900460ff166102725760405162461bcd60e51b81526004016102699061124e565b60405180910390fd5b5033600090815260208190526040902060020154600160c81b900460ff1690565b33600090815260208190526040812060020154600160d01b900460ff166102cc5760405162461bcd60e51b81526004016102699061124e565b503360009081526020819052604090205490565b6001546001600160a01b0316331461033a5760405162461bcd60e51b815260206004820152601e60248201527f436f6e666964656e7469616c56657374696e673a206e6f74206f776e657200006044820152606401610269565b6001600160a01b03811660009081526020819052604090206002810154600160d01b900460ff1661037d5760405162461bcd60e51b81526004016102699061124e565b6002810154600160c01b900460ff166103e35760405162461bcd60e51b815260206004820152602260248201527f436f6e666964656e7469616c56657374696e673a206e6f74207265766f6361626044820152616c6560f01b6064820152608401610269565b6002810154600160c81b900460ff161561044b5760405162461bcd60e51b8152602060048201526024808201527f436f6e666964656e7469616c56657374696e673a20616c7265616479207265766044820152631bdad95960e21b6064820152608401610269565b60028101805460ff60c81b1916600160c81b1790556040516001600160a01b038316907f68d870ac0aff3819234e8a1fc8f357b40d75212f2dc8594b97690fa205b3bab290600090a25050565b3360009081526020819052604090206002810154600160d01b900460ff166104d25760405162461bcd60e51b81526004016102699061124e565b6002810154600160c81b900460ff161561052e5760405162461bcd60e51b815260206004820152601c60248201527f436f6e666964656e7469616c56657374696e673a207265766f6b6564000000006044820152606401610269565b6000610539336101f6565b9050610549826001015482610d19565b6001830181905561055990610d4b565b50610568826001015433610d5b565b5060405133907ffde0151cb035912fc21ff48e99544ba7e24bb1cdd3280cc2087dee6be40432d090600090a25050565b60006105a2610d6e565b905090565b33600090815260208190526040812060020154600160d01b900460ff166105e05760405162461bcd60e51b81526004016102699061124e565b503360009081526020819052604090206001015490565b33600090815260208190526040812060020154600160d01b900460ff166106305760405162461bcd60e51b81526004016102699061124e565b5033600090815260208190526040902060020154600160401b90046001600160401b031690565b6001546001600160a01b031633146106b15760405162461bcd60e51b815260206004820152601e60248201527f436f6e666964656e7469616c56657374696e673a206e6f74206f776e657200006044820152606401610269565b6001600160a01b0388166107115760405162461bcd60e51b815260206004820152602160248201527f436f6e666964656e7469616c56657374696e673a207a65726f206164647265736044820152607360f81b6064820152608401610269565b6001600160a01b038816600090815260208190526040902060020154600160d01b900460ff16156107905760405162461bcd60e51b815260206004820152602360248201527f436f6e666964656e7469616c56657374696e673a20616c72656164792065786960448201526273747360e81b6064820152608401610269565b6000836001600160401b0316116107f45760405162461bcd60e51b815260206004820152602260248201527f436f6e666964656e7469616c56657374696e673a206475726174696f6e206973604482015261020360f41b6064820152608401610269565b42846001600160401b031610156108585760405162461bcd60e51b815260206004820152602260248201527f436f6e666964656e7469616c56657374696e673a20737461727420696e2070616044820152611cdd60f21b6064820152608401610269565b600061089a8888888080601f016020809104026020016040519081016040528093929190818152602001838380828437600092019190915250610da592505050565b90506040518061010001604052808281526020016108b86000610db3565b8152602001866001600160401b03168152602001856001600160401b03168152602001846001600160401b031681526020018315158152602001600015158152602001600115158152506000808b6001600160a01b03166001600160a01b03168152602001908152602001600020600082015181600001556020820151816001015560408201518160020160006101000a8154816001600160401b0302191690836001600160401b0316021790555060608201518160020160086101000a8154816001600160401b0302191690836001600160401b0316021790555060808201518160020160106101000a8154816001600160401b0302191690836001600160401b0316021790555060a08201518160020160186101000a81548160ff02191690831515021790555060c08201518160020160196101000a81548160ff02191690831515021790555060e082015181600201601a6101000a81548160ff021916908315150217905550905050610a546000808b6001600160a01b03166001600160a01b0316815260200190815260200160002060000154610d4b565b506001600160a01b038916600090815260208190526040902054610a78908a610d5b565b506001600160a01b038916600090815260208190526040902060010154610a9e90610d4b565b506001600160a01b038916600090815260208190526040902060010154610ac5908a610d5b565b50604080516001600160401b038088168252861660208201526001600160a01b038b16917f1cfd96059e1d1769eb242c668065784df186f66cb14ac220265556d7cc92e86a910160405180910390a2505050505050505050565b33600090815260208190526040812060020154600160d01b900460ff16610b585760405162461bcd60e51b81526004016102699061124e565b50336000908152602081905260409020600201546001600160401b031690565b6001600160a01b03811660009081526020819052604081206002810154600160d01b900460ff16610bbb5760405162461bcd60e51b81526004016102699061124e565b6002810154600160c81b900460ff1615610bd9576001015492915050565b60028101544290610bfc906001600160401b03600160801b820481169116611299565b6001600160401b0316816001600160401b03161015610c1f576102286000610db3565b6002820154610c40906001600160401b03600160401b820481169116611299565b6001600160401b0316816001600160401b031610610c6057505492915050565b6002820154600090610c7b906001600160401b0316836112c0565b600284810154919250610c9d91600160401b90046001600160401b03166112e0565b6001600160401b0316816001600160401b031610610ccd576000610cc16002610db3565b50509154949350505050565b610cd76000610db3565b95945050505050565b600082610cf457610cf16000610db3565b92505b81610d0657610d036000610db3565b91505b610d1283836000610dcc565b9392505050565b600082610d2d57610d2a6000610db3565b92505b81610d3f57610d3c6000610db3565b91505b610d1283836000610e90565b6000610d578230610f0b565b5090565b6000610d678383610f0b565b5090919050565b600046600103610d7e5750600190565b4662aa36a703610d8f575061271190565b46617a6903610d9f575060001990565b50600090565b6000610d1283836004610f88565b6000610dc68263ffffffff16600461108d565b92915050565b6000808215610de05750600160f81b610de4565b5060005b6000805160206113cf833981519152546040516303056db360e31b815260048101879052602481018690526001600160f81b0319831660448201526000805160206113ef833981519152916001600160a01b03169063182b6d98906064015b6020604051808303816000875af1158015610e62573d6000803e3d6000fd5b505050506040513d601f19601f82011682018060405250810190610e869190611314565b9695505050505050565b6000808215610ea45750600160f81b610ea8565b5060005b6000805160206113cf8339815191525460405163022f65e760e31b815260048101879052602481018690526001600160f81b0319831660448201526000805160206113ef833981519152916001600160a01b03169063117b2f3890606401610e43565b60006000805160206113ef8339815191528054604051635ca4b5b160e11b8152600481018690526001600160a01b03858116602483015292935091169063b9496b6290604401600060405180830381600087803b158015610f6b57600080fd5b505af1158015610f7f573d6000803e3d6000fd5b50505050505050565b6000805160206113cf8339815191525460405163045fc19560e11b81526000916000805160206113ef833981519152916001600160a01b03909116906308bf832a90610fde90889033908990899060040161134f565b6020604051808303816000875af1158015610ffd573d6000803e3d6000fd5b505050506040513d601f19601f820116820180604052508101906110219190611314565b8154604051630f8e573b60e21b8152600481018390523360248201529193506001600160a01b031690633e395cec90604401600060405180830381600087803b15801561106d57600080fd5b505af1158015611081573d6000803e3d6000fd5b50505050509392505050565b6000805160206113cf83398151915254604051639cd07acb60e01b81526000916000805160206113ef833981519152916001600160a01b0390911690639cd07acb906110df90879087906004016113ba565b6020604051808303816000875af11580156110fe573d6000803e3d6000fd5b505050506040513d601f19601f820116820180604052508101906102289190611314565b80356001600160a01b038116811461113957600080fd5b919050565b60006020828403121561115057600080fd5b610d1282611122565b80356001600160401b038116811461113957600080fd5b8035801515811461113957600080fd5b60008060008060008060008060e0898b03121561119c57600080fd5b6111a589611122565b97506020890135965060408901356001600160401b03808211156111c857600080fd5b818b0191508b601f8301126111dc57600080fd5b8135818111156111eb57600080fd5b8c60208285010111156111fd57600080fd5b60208301985080975050505061121560608a01611159565b935061122360808a01611159565b925061123160a08a01611159565b915061123f60c08a01611170565b90509295985092959890939650565b6020808252818101527f436f6e666964656e7469616c56657374696e673a206e6f207363686564756c65604082015260600190565b634e487b7160e01b600052601160045260246000fd5b6001600160401b038181168382160190808211156112b9576112b9611283565b5092915050565b6001600160401b038281168282160390808211156112b9576112b9611283565b60006001600160401b038084168061130857634e487b7160e01b600052601260045260246000fd5b92169190910492915050565b60006020828403121561132657600080fd5b5051919050565b6054811061134b57634e487b7160e01b600052602160045260246000fd5b9052565b8481526000602060018060a01b038616602084015260806040840152845180608085015260005b818110156113925786810183015185820160a001528201611376565b50600060a0828601015260a0601f19601f83011685010192505050610cd7606083018461132d565b82815260408101610d12602083018461132d56fe9e7b61f58c47dc699ac88507c4f5bb9f121c03808c5676a8078fe583e46497019e7b61f58c47dc699ac88507c4f5bb9f121c03808c5676a8078fe583e4649700a26469706673582212204b4de43ff1f4c7a6a7370f9287d7d010179c9e9056cabfa240008d5187f85f9664736f6c63430008180033",
  "linkReferences": {},
  "deployedLinkReferences": {}
}