{
  "_format": "hh-sol-artifact-1",
  "contractName": "EncryptSingleValue",
  "sourceName": "contracts/encryption/EncryptSingleValue.sol",
  "abi": [
    {
      "inputs": [],
      "name": "ZamaProtocolUnsupported",
      "type": "error"
    },
    {
      "anonymous": false,
      "inputs": [
        {
          "indexed": true,
          "internalType": "address",
          "name": "owner",
          "type": "address"
        }
      ],
      "name": "SecretStored",
      "type": "event"
    },
    {
      "inputs": [],
      "name": "confidentialProtocolId",
      "outputs": [
        {
          "internalType": "uint256",
          "name": "",
          "type": "uint256"
        }
      ],
      "stateMutability": "view",
      "type": "function"
    },
    {
      "inputs": [],
      "name": "getSecret",
      "outputs": [
        {
          "internalType": "euint32",
          "name": "",
          "type": "bytes32"
        }
      ],
      "stateMutability": "view",
      "type": "function"
    },
    {
      "inputs": [
        {
          "internalType": "externalEuint32",
          "name": "encryptedSecret",
          "type": "bytes32"
        },
        {
          "internalType": "bytes",
          "name": "inputProof",
          "type": "bytes"
        }
      ],
      "name": "storeSecret",
      "outputs": [],
      "stateMutability": "nonpayable",
      "type": "function"
    },
    {
      "inputs": [
        {
          "internalType": "externalEuint32",
          "name": "newSecret",
          "type": "bytes32"
        },
        {
          "internalType": "bytes",
          "name": "inputProof",
          "type": "bytes"
        }
      ],
      "name": "updateSecret",
      "outputs": [],
      "stateMutability": "nonpayable",
      "type": "function"
    },
    {
      "inputs": [
        {
          "internalType": "address",
          "name": "user",
          "type": "address"
        }
      ],
      "name": "userHasSecret",
      "outputs": [
        {
          "internalType": "bool",
          "name": "",
          "type": "bool"
        }
      ],
      "stateMutability": "view",
      "type": "function"
    }
  ],
  "bytecode": "0x608060405234801561001057600080fd5b506100c561001c6100ca565b80517f9e7b61f58c47dc699ac88507c4f5bb9f121c03808c5676a8078fe583e464970080546001600160a01b03199081166001600160a01b039384161790915560208301517f9e7b61f58c47dc699ac88507c4f5bb9f121c03808c5676a8078fe583e46497018054831691841691909117905560408301517f9e7b61f58c47dc699ac88507c4f5bb9f121c03808c5676a8078fe583e46497028054909216921691909117905550565b61023d565b6040805160608101825260008082526020820181905291810191909152466001036101255750604080516060808201835260008083526020808401829052928401819052835191820184528082529181018290529182015290565b4662aa36a7036101a55750604080516060808201835260008083526020808401829052928401528251908101835273f0ffdc93b7e186bc2f8cb3daa75d86d1930a433d81527392c920834ec8941d2c77d188936e1f7a6f49c1279181019190915273be0e383937d564d7ff0bc3b46c51f0bf8d5c311a9181019190915290565b46617a6903610224575060408051606080820183526000808352602080840182905292840152825190810183527350157cffd6bbfa2dece204a89ec419c23ef5755d815273e3a9105a3a932253a70f126eb1e3b589c643dd249181019190915273be0e383937d564d7ff0bc3b46c51f0bf8d5c311a9181019190915290565b6040516373cac13b60e01b815260040160405180910390fd5b6106ed8061024c6000396000f3fe608060405234801561001057600080fd5b50600436106100575760003560e01c80633036923a1461005c5780635b9fdc30146100715780638927b0301461008c578063e179c34e14610094578063e57187cf146100a7575b600080fd5b61006f61006a36600461052a565b6100e3565b005b6100796101c6565b6040519081526020015b60405180910390f35b610079610209565b61006f6100a236600461052a565b610218565b6100d36100b53660046105a6565b6001600160a01b031660009081526001602052604090205460ff1690565b6040519015158152602001610083565b3360009081526001602052604090205460ff1661011b5760405162461bcd60e51b8152600401610112906105cf565b60405180910390fd5b600061015d8484848080601f01602080910402602001604051908101604052809392919081815260200183838082843760009201919091525061030392505050565b336000908152602081905260409020819055905061017a81610318565b503360008181526020819052604090205461019491610328565b5060405133907f0977f4c93d6a66455eb4f1467e8a01fec7c62b1ce20353fb51b7269712e1196790600090a250505050565b3360009081526001602052604081205460ff166101f55760405162461bcd60e51b8152600401610112906105cf565b503360009081526020819052604090205490565b600061021361033b565b905090565b3360009081526001602052604090205460ff161561028a5760405162461bcd60e51b815260206004820152602960248201527f456e637279707453696e676c6556616c75653a2073656372657420616c726561604482015268191e481cdd1bdc995960ba1b6064820152608401610112565b60006102cc8484848080601f01602080910402602001604051908101604052809392919081815260200183838082843760009201919091525061030392505050565b336000908152602081815260408083208481556001808452918420805460ff19169092179091559190525490915061017a90610318565b600061031183836004610372565b9392505050565b6000610324823061049b565b5090565b6000610334838361049b565b5090919050565b60004660010361034b5750600190565b4662aa36a70361035c575061271190565b46617a690361036c575060001990565b50600090565b7f9e7b61f58c47dc699ac88507c4f5bb9f121c03808c5676a8078fe583e46497015460405163045fc19560e11b81526000917f9e7b61f58c47dc699ac88507c4f5bb9f121c03808c5676a8078fe583e4649700916001600160a01b03909116906308bf832a906103ec908890339089908990600401610613565b6020604051808303816000875af115801561040b573d6000803e3d6000fd5b505050506040513d601f19601f8201168201806040525081019061042f919061069e565b8154604051630f8e573b60e21b8152600481018390523360248201529193506001600160a01b031690633e395cec90604401600060405180830381600087803b15801561047b57600080fd5b505af115801561048f573d6000803e3d6000fd5b50505050509392505050565b60007f9e7b61f58c47dc699ac88507c4f5bb9f121c03808c5676a8078fe583e46497008054604051635ca4b5b160e11b8152600481018690526001600160a01b03858116602483015292935091169063b9496b6290604401600060405180830381600087803b15801561050d57600080fd5b505af1158015610521573d6000803e3d6000fd5b50505050505050565b60008060006040848603121561053f57600080fd5b83359250602084013567ffffffffffffffff8082111561055e57600080fd5b818601915086601f83011261057257600080fd5b81358181111561058157600080fd5b87602082850101111561059357600080fd5b6020830194508093505050509250925092565b6000602082840312156105b857600080fd5b81356001600160a01b038116811461031157600080fd5b60208082526024908201527f456e637279707453696e676c6556616c75653a206e6f207365637265742073746040820152631bdc995960e21b606082015260800190565b8481526000602060018060a01b038616602084015260806040840152845180608085015260005b818110156106565786810183015185820160a00152820161063a565b50600060a0828601015260a0601f19601f830116850101925050506054831061068f57634e487b7160e01b600052602160045260246000fd5b82606083015295945050505050565b6000602082840312156106b057600080fd5b505191905056fea26469706673582212200da7d3f38bef41ab12c10f01180c376942e77842396e602f8767cb0852476f2764736f6c63430008180033",
  "linkReferences": {},
  "deployedLinkReferences": {}
}