{
  "_format": "hh-sol-artifact-1",
  "contractName": "FHEArithmetic",
  "sourceName": "contracts/basic/FHEArithmetic.sol",
  "abi": [
    {
      "inputs": [],
      "stateMutability": "nonpayable",
      "type": "constructor"
    },
    {
      "inputs": [],
      "name": "ZamaProtocolUnsupported",
      "type": "error"
    },
    {
      "inputs": [
        {
          "internalType": "externalEuint32",
          "name": "valueToAdd",
          "type": "bytes32"
        },
        {
          "internalType": "bytes",
          "name": "inputProof",
          "type": "bytes"
        }
      ],
      "name": "addToCounter",
      "outputs": [],
      "stateMutability": "nonpayable",
      "type": "function"
    },
    {
      "inputs": [],
      "name": "confidentialProtocolId",
      "outputs": [
        {
          "internalType": "uint256",
          "name": "",
          "type": "uint256"
        }
      ],
      "stateMutability": "view",
      "type": "function"
    },
    {
      "inputs": [
        {
          "internalType": "externalEuint32",
          "name": "divisor",
          "type": "bytes32"
        },
        {
          "internalType": "bytes",
          "name": "inputProof",
          "type": "bytes"
        }
      ],
      "name": "divideCounter",
      "outputs": [],
      "stateMutability": "nonpayable",
      "type": "function"
    },
    {
      "inputs": [],
      "name": "getEncryptedCounter",
      "outputs": [
        {
          "internalType": "euint32",
          "name": "",
          "type": "bytes32"
        }
      ],
      "stateMutability": "view",
      "type": "function"
    },
    {
      "inputs": [
        {
          "internalType": "externalEuint32",
          "name": "multiplier",
          "type": "bytes32"
        },
        {
          "internalType": "bytes",
          "name": "inputProof",
          "type": "bytes"
        }
      ],
      "name": "multiplyCounter",
      "outputs": [],
      "stateMutability": "nonpayable",
      "type": "function"
    },
    {
      "inputs": [
        {
          "internalType": "externalEuint32",
          "name": "valueToSubtract",
          "type": "bytes32"
        },
        {
          "internalType": "bytes",
          "name": "inputProof",
          "type": "bytes"
        }
      ],
      "name": "subtractFromCounter",
      "outputs": [],
      "stateMutability": "nonpayable",
      "type": "function"
    }
  ],
  "bytecode": "0x608060405234801561001057600080fd5b506100b361001c6100c5565b80517f9e7b61f58c47dc699ac88507c4f5bb9f121c03808c5676a8078fe583e464970080546001600160a01b03199081166001600160a01b03938416179091556020830151600080516020610c318339815191528054831691841691909117905560408301517f9e7b61f58c47dc699ac88507c4f5bb9f121c03808c5676a8078fe583e46497028054909216921691909117905550565b6100bd6000610238565b60005561034b565b6040805160608101825260008082526020820181905291810191909152466001036101205750604080516060808201835260008083526020808401829052928401819052835191820184528082529181018290529182015290565b4662aa36a7036101a05750604080516060808201835260008083526020808401829052928401528251908101835273f0ffdc93b7e186bc2f8cb3daa75d86d1930a433d81527392c920834ec8941d2c77d188936e1f7a6f49c1279181019190915273be0e383937d564d7ff0bc3b46c51f0bf8d5c311a9181019190915290565b46617a690361021f575060408051606080820183526000808352602080840182905292840152825190810183527350157cffd6bbfa2dece204a89ec419c23ef5755d815273e3a9105a3a932253a70f126eb1e3b589c643dd249181019190915273be0e383937d564d7ff0bc3b46c51f0bf8d5c311a9181019190915290565b6040516373cac13b60e01b815260040160405180910390fd5b600061024b63ffffffff83166004610251565b92915050565b600080516020610c3183398151915254604051639cd07acb60e01b81526000917f9e7b61f58c47dc699ac88507c4f5bb9f121c03808c5676a8078fe583e4649700916001600160a01b0390911690639cd07acb906102b59087908790600401610300565b6020604051808303816000875af11580156102d4573d6000803e3d6000fd5b505050506040513d601f19601f820116820180604052508101906102f89190610332565b949350505050565b828152604081016054831061032557634e487b7160e01b600052602160045260246000fd5b8260208301529392505050565b60006020828403121561034457600080fd5b5051919050565b6108d78061035a6000396000f3fe608060405234801561001057600080fd5b50600436106100625760003560e01c80631ceb19fb146100675780634d0bfeb31461007d57806365585ab3146100925780638927b030146100a557806397b4927e146100ad578063c68c12a2146100c0575b600080fd5b6000545b60405190815260200160405180910390f35b61009061008b366004610702565b6100d3565b005b6100906100a0366004610702565b610136565b61006b610194565b6100906100bb366004610702565b6101a3565b6100906100ce366004610702565b6101f3565b60006101158484848080601f01602080910402602001604051908101604052809392919081815260200183838082843760009201919091525061024392505050565b9050610122600054610258565b5061012f60005433610268565b5050505050565b60006101788484848080601f01602080910402602001604051908101604052809392919081815260200183838082843760009201919091525061024392505050565b90506101866000548261027b565b600081905561012290610258565b600061019e6102ad565b905090565b60006101e58484848080601f01602080910402602001604051908101604052809392919081815260200183838082843760009201919091525061024392505050565b9050610186600054826102e4565b60006102358484848080601f01602080910402602001604051908101604052809392919081815260200183838082843760009201919091525061024392505050565b905061018660005482610316565b600061025183836004610348565b9392505050565b6000610264823061044d565b5090565b6000610274838361044d565b5090919050565b60008261028f5761028c60006104ca565b92505b816102a15761029e60006104ca565b91505b610251838360006104e3565b6000466001036102bd5750600190565b4662aa36a7036102ce575061271190565b46617a69036102de575060001990565b50600090565b6000826102f8576102f560006104ca565b92505b8161030a5761030760006104ca565b91505b61025183836000610597565b60008261032a5761032760006104ca565b92505b8161033c5761033960006104ca565b91505b610251838360006105fe565b6000805160206108628339815191525460405163045fc19560e11b8152600091600080516020610882833981519152916001600160a01b03909116906308bf832a9061039e9088903390899089906004016107a0565b6020604051808303816000875af11580156103bd573d6000803e3d6000fd5b505050506040513d601f19601f820116820180604052508101906103e19190610814565b8154604051630f8e573b60e21b8152600481018390523360248201529193506001600160a01b031690633e395cec90604401600060405180830381600087803b15801561042d57600080fd5b505af1158015610441573d6000803e3d6000fd5b50505050509392505050565b60006000805160206108828339815191528054604051635ca4b5b160e11b8152600481018690526001600160a01b03858116602483015292935091169063b9496b6290604401600060405180830381600087803b1580156104ad57600080fd5b505af11580156104c1573d6000803e3d6000fd5b50505050505050565b60006104dd8263ffffffff166004610665565b92915050565b60008082156104f75750600160f81b6104fb565b5060005b6000805160206108628339815191525460405163022f65e760e31b8152600080516020610882833981519152916001600160a01b03169063117b2f389061054a9089908990879060040161082d565b6020604051808303816000875af1158015610569573d6000803e3d6000fd5b505050506040513d601f19601f8201168201806040525081019061058d9190610814565b9695505050505050565b60008082156105ab5750600160f81b6105af565b5060005b600080516020610862833981519152546040516303056db360e31b8152600080516020610882833981519152916001600160a01b03169063182b6d989061054a9089908990879060040161082d565b60008082156106125750600160f81b610616565b5060005b60008051602061086283398151915254604051630afe14ad60e31b8152600080516020610882833981519152916001600160a01b0316906357f0a5689061054a9089908990879060040161082d565b60008051602061086283398151915254604051639cd07acb60e01b8152600091600080516020610882833981519152916001600160a01b0390911690639cd07acb906106b7908790879060040161084d565b6020604051808303816000875af11580156106d6573d6000803e3d6000fd5b505050506040513d601f19601f820116820180604052508101906106fa9190610814565b949350505050565b60008060006040848603121561071757600080fd5b83359250602084013567ffffffffffffffff8082111561073657600080fd5b818601915086601f83011261074a57600080fd5b81358181111561075957600080fd5b87602082850101111561076b57600080fd5b6020830194508093505050509250925092565b6054811061079c57634e487b7160e01b600052602160045260246000fd5b9052565b8481526000602060018060a01b038616602084015260806040840152845180608085015260005b818110156107e35786810183015185820160a0015282016107c7565b50600060a0828601015260a0601f19601f8301168501019250505061080b606083018461077e565b95945050505050565b60006020828403121561082657600080fd5b5051919050565b92835260208301919091526001600160f81b031916604082015260600190565b82815260408101610251602083018461077e56fe9e7b61f58c47dc699ac88507c4f5bb9f121c03808c5676a8078fe583e46497019e7b61f58c47dc699ac88507c4f5bb9f121c03808c5676a8078fe583e4649700a2646970667358221220f0d57f39f567453ae40319ea322e3954c83e7b3dbe12568451b2d89dd16f9e1364736f6c634300081800339e7b61f58c47dc699ac88507c4f5bb9f121c03808c5676a8078fe583e4649701",
  "linkReferences": {},
  "deployedLinkReferences": {}
}