{
  "_format": "hh-sol-artifact-1",
  "contractName": "BlindAuction",
  "sourceName": "contracts/advanced/BlindAuction.sol",
  "abi": [
    {
      "inputs": [],
      "name": "ZamaProtocolUnsupported",
      "type": "error"
    },
    {
      "anonymous": false,
      "inputs": [
        {
          "indexed": true,
          "internalType": "address",
          "name": "owner",
          "type": "address"
        },
        {
          "indexed": false,
          "internalType": "uint256",
          "name": "endTime",
          "type": "uint256"
        }
      ],
      "name": "AuctionCreated",
      "type": "event"
    },
    {
      "anonymous": false,
      "inputs": [],
      "name": "AuctionFinalized",
      "type": "event"
    },
    {
      "anonymous": false,
      "inputs": [
        {
          "indexed": true,
          "internalType": "address",
          "name": "winner",
          "type": "address"
        },
        {
          "indexed": false,
          "internalType": "uint32",
          "name": "winningBid",
          "type": "uint32"
        }
      ],
      "name": "AuctionRevealed",
      "type": "event"
    },
    {
      "anonymous": false,
      "inputs": [
        {
          "indexed": true,
          "internalType": "address",
          "name": "bidder",
          "type": "address"
        }
      ],
      "name": "BidPlaced",
      "type": "event"
    },
    {
      "inputs": [],
      "name": "confidentialProtocolId",
      "outputs": [
        {
          "internalType": "uint256",
          "name": "",
          "type": "uint256"
        }
      ],
      "stateMutability": "view",
      "type": "function"
    },
    {
      "inputs": [
        {
          "internalType": "uint256",
          "name": "duration",
          "type": "uint256"
        }
      ],
      "name": "createAuction",
      "outputs": [],
      "stateMutability": "nonpayable",
      "type": "function"
    },
    {
      "inputs": [],
      "name": "endBidding",
      "outputs": [],
      "stateMutability": "nonpayable",
      "type": "function"
    },
    {
      "inputs": [],
      "name": "getAuctionState",
      "outputs": [
        {
          "internalType": "enum BlindAuction.AuctionState",
          "name": "",
          "type": "uint8"
        }
      ],
      "stateMutability": "view",
      "type": "function"
    },
    {
      "inputs": [],
      "name": "getEncryptedBid",
      "outputs": [
        {
          "internalType": "euint32",
          "name": "",
          "type": "bytes32"
        }
      ],
      "stateMutability": "view",
      "type": "function"
    },
    {
      "inputs": [],
      "name": "getHighestBid",
      "outputs": [
        {
          "internalType": "euint32",
          "name": "",
          "type": "bytes32"
        }
      ],
      "stateMutability": "view",
      "type": "function"
    },
    {
      "inputs": [],
      "name": "getHighestBidder",
      "outputs": [
        {
          "internalType": "address",
          "name": "",
          "type": "address"
        }
      ],
      "stateMutability": "view",
      "type": "function"
    },
    {
      "inputs": [
        {
          "internalType": "address",
          "name": "bidder",
          "type": "address"
        }
      ],
      "name": "hasBidded",
      "outputs": [
        {
          "internalType": "bool",
          "name": "",
          "type": "bool"
        }
      ],
      "stateMutability": "view",
      "type": "function"
    },
    {
      "inputs": [
        {
          "internalType": "address",
          "name": "bidder1",
          "type": "address"
        },
        {
          "internalType": "address",
          "name": "bidder2",
          "type": "address"
        }
      ],
      "name": "isHigherBid",
      "outputs": [
        {
          "internalType": "ebool",
          "name": "",
          "type": "bytes32"
        }
      ],
      "stateMutability": "nonpayable",
      "type": "function"
    },
    {
      "inputs": [
        {
          "internalType": "externalEuint32",
          "name": "encryptedBid",
          "type": "bytes32"
        },
        {
          "internalType": "bytes",
          "name": "inputProof",
          "type": "bytes"
        }
      ],
      "name": "placeBid",
      "outputs": [],
      "stateMutability": "nonpayable",
      "type": "function"
    },
    {
      "inputs": [
        {
          "internalType": "uint32",
          "name": "decryptedAmount",
          "type": "uint32"
        }
      ],
      "name": "revealWinner",
      "outputs": [],
      "stateMutability": "nonpayable",
      "type": "function"
    },
    {
      "inputs": [
        {
          "internalType": "address",
          "name": "bidder",
          "type": "address"
        }
      ],
      "name": "updateHighestBid",
      "outputs": [],
      "stateMutability": "nonpayable",
      "type": "function"
    }
  ],
  "bytecode": "0x608060405234801561001057600080fd5b506100c561001c6100ca565b80517f9e7b61f58c47dc699ac88507c4f5bb9f121c03808c5676a8078fe583e464970080546001600160a01b03199081166001600160a01b039384161790915560208301517f9e7b61f58c47dc699ac88507c4f5bb9f121c03808c5676a8078fe583e46497018054831691841691909117905560408301517f9e7b61f58c47dc699ac88507c4f5bb9f121c03808c5676a8078fe583e46497028054909216921691909117905550565b61023d565b6040805160608101825260008082526020820181905291810191909152466001036101255750604080516060808201835260008083526020808401829052928401819052835191820184528082529181018290529182015290565b4662aa36a7036101a55750604080516060808201835260008083526020808401829052928401528251908101835273f0ffdc93b7e186bc2f8cb3daa75d86d1930a433d81527392c920834ec8941d2c77d188936e1f7a6f49c1279181019190915273be0e383937d564d7ff0bc3b46c51f0bf8d5c311a9181019190915290565b46617a6903610224575060408051606080820183526000808352602080840182905292840152825190810183527350157cffd6bbfa2dece204a89ec419c23ef5755d815273e3a9105a3a932253a70f126eb1e3b589c643dd249181019190915273be0e383937d564d7ff0bc3b46c51f0bf8d5c311a9181019190915290565b6040516373cac13b60e01b815260040160405180910390fd5b61106d8061024c6000396000f3fe608060405234801561001057600080fd5b50600436106100b35760003560e01c80634f0430f8116100715780634f0430f814610134578063550fcb69146101475780638927b0301461015a578063d5563f3114610162578063dd7b08dc14610175578063ef4cec1f1461017d57600080fd5b80623495a4146100b857806308bfc300146100d85780631a81d59c146100f25780632f45e2df146100fc5780634979440a1461010f5780634b00574d14610121575b600080fd5b6002546040516001600160a01b0390911681526020015b60405180910390f35b600254600160a01b900460ff166040516100cf9190610e02565b6100fa6101b9565b005b6100fa61010a366004610e38565b6102f2565b6001545b6040519081526020016100cf565b6100fa61012f366004610e53565b610402565b6100fa610142366004610ecf565b6105f5565b610113610155366004610ef5565b610775565b61011361084f565b6100fa610170366004610f28565b61085e565b6101136109c6565b6101a961018b366004610e38565b6001600160a01b031660009081526006602052604090205460ff1690565b60405190151581526020016100cf565b6000546001600160a01b031633146102135760405162461bcd60e51b8152602060048201526018602482015277213634b73220bab1ba34b7b71d1037b7363c9037bbb732b960411b60448201526064015b60405180910390fd5b6003544210156102705760405162461bcd60e51b815260206004820152602260248201527f426c696e6441756374696f6e3a2061756374696f6e207374696c6c2061637469604482015261766560f01b606482015260840161020a565b600060028054600160a01b900460ff169081111561029057610290610dec565b146102dd5760405162461bcd60e51b815260206004820152601c60248201527f426c696e6441756374696f6e3a206e6f7420696e2062696464696e6700000000604482015260640161020a565b6002805460ff60a01b1916600160a01b179055565b6001600160a01b03811660009081526006602052604090205460ff1661035a5760405162461bcd60e51b815260206004820152601f60248201527f426c696e6441756374696f6e3a2062696464657220686173206e6f2062696400604482015260640161020a565b600060028054600160a01b900460ff169081111561037a5761037a610dec565b146103d25760405162461bcd60e51b815260206004820152602260248201527f426c696e6441756374696f6e3a206e6f7420696e2062696464696e6720737461604482015261746560f01b606482015260840161020a565b6001600160a01b0316600081815260056020526040902054600155600280546001600160a01b0319169091179055565b600060028054600160a01b900460ff169081111561042257610422610dec565b146104825760405162461bcd60e51b815260206004820152602a60248201527f426c696e6441756374696f6e3a2061756374696f6e206e6f7420696e2062696460448201526964696e6720737461746560b01b606482015260840161020a565b60035442106104d35760405162461bcd60e51b815260206004820152601b60248201527f426c696e6441756374696f6e3a2062696464696e6720656e6465640000000000604482015260640161020a565b3360009081526006602052604090205460ff16156105335760405162461bcd60e51b815260206004820152601960248201527f426c696e6441756374696f6e3a20616c72656164792062696400000000000000604482015260640161020a565b60006105758484848080601f016020809104026020016040519081016040528093929190818152602001838380828437600092019190915250610a3992505050565b336000908152600560208181526040808420858155600683529320805460ff1916600117905552549091506105a990610a4e565b50336000818152600560205260409020546105c391610a5e565b5060405133907fe677a6b9a16a696674f50d2c98a1ce8c5cb51d6b48a0223412c512bbc93664d590600090a250505050565b6000546001600160a01b0316331461064a5760405162461bcd60e51b8152602060048201526018602482015277213634b73220bab1ba34b7b71d1037b7363c9037bbb732b960411b604482015260640161020a565b600160028054600160a01b900460ff169081111561066a5761066a610dec565b146106b75760405162461bcd60e51b815260206004820152601b60248201527f426c696e6441756374696f6e3a206e6f7420696e2072657665616c0000000000604482015260640161020a565b60045460ff161561070a5760405162461bcd60e51b815260206004820152601f60248201527f426c696e6441756374696f6e3a20616c72656164792066696e616c697a656400604482015260640161020a565b6004805460ff191660011790556002805460ff60a01b198116600160a11b1790915560405163ffffffff831681526001600160a01b03909116907fb4fac7011113b9220e2b061d1c62ee35a8fa395eb38f8a27d7fd50ef4671ecf2906020015b60405180910390a250565b6001600160a01b03821660009081526006602052604081205460ff1680156107b557506001600160a01b03821660009081526006602052604090205460ff165b6108015760405162461bcd60e51b815260206004820152601d60248201527f426c696e6441756374696f6e3a20696e76616c69642062696464657273000000604482015260640161020a565b6001600160a01b03808416600090815260056020526040808220549285168252812054909161082f91610a71565b905061083a81610a4e565b506108458133610a5e565b5090505b92915050565b6000610859610aa3565b905090565b6000546001600160a01b0316156108b75760405162461bcd60e51b815260206004820152601c60248201527f426c696e6441756374696f6e3a2061756374696f6e2065786973747300000000604482015260640161020a565b6040518060c00160405280336001600160a01b031681526020016108db6000610ada565b815260006020820181905260408201526060016108f88342610f41565b815260006020918201819052825181546001600160a01b03199081166001600160a01b0392831617835592840151600155604084015160028054948516919092169081178255606085015192936001600160a81b03191617600160a01b838381111561096657610966610dec565b0217905550608082015160038281019190915560a0909201516004909101805460ff19169115159190911790555460405190815233907f3249a06bd478adf780bb7930214ad005e9cfa517d63221c0b77f27199d1a58b39060200161076a565b3360009081526006602052604081205460ff16610a255760405162461bcd60e51b815260206004820152601a60248201527f426c696e6441756374696f6e3a206e6f2062696420666f756e64000000000000604482015260640161020a565b503360009081526005602052604090205490565b6000610a4783836004610aed565b9392505050565b6000610a5a8230610c04565b5090565b6000610a6a8383610c04565b5090919050565b600082610a8557610a826000610ada565b92505b81610a9757610a946000610ada565b91505b610a4783836000610c81565b600046600103610ab35750600190565b4662aa36a703610ac4575061271190565b46617a6903610ad4575060001990565b50600090565b60006108498263ffffffff166004610d3d565b7f9e7b61f58c47dc699ac88507c4f5bb9f121c03808c5676a8078fe583e46497015460405163045fc19560e11b8152600091600080516020611018833981519152916001600160a01b03909116906308bf832a90610b55908890339089908990600401610f76565b6020604051808303816000875af1158015610b74573d6000803e3d6000fd5b505050506040513d601f19601f82011682018060405250810190610b989190610fea565b8154604051630f8e573b60e21b8152600481018390523360248201529193506001600160a01b031690633e395cec90604401600060405180830381600087803b158015610be457600080fd5b505af1158015610bf8573d6000803e3d6000fd5b50505050509392505050565b60006000805160206110188339815191528054604051635ca4b5b160e11b8152600481018690526001600160a01b03858116602483015292935091169063b9496b6290604401600060405180830381600087803b158015610c6457600080fd5b505af1158015610c78573d6000803e3d6000fd5b50505050505050565b6000808215610c955750600160f81b610c99565b5060005b600060008051602061101883398151915260018101546040516385362ee760e01b815260048101899052602481018890526001600160f81b0319851660448201529192506001600160a01b0316906385362ee7906064016020604051808303816000875af1158015610d0f573d6000803e3d6000fd5b505050506040513d601f19601f82011682018060405250810190610d339190610fea565b9695505050505050565b7f9e7b61f58c47dc699ac88507c4f5bb9f121c03808c5676a8078fe583e464970154604051639cd07acb60e01b8152600091600080516020611018833981519152916001600160a01b0390911690639cd07acb90610da19087908790600401611003565b6020604051808303816000875af1158015610dc0573d6000803e3d6000fd5b505050506040513d601f19601f82011682018060405250810190610de49190610fea565b949350505050565b634e487b7160e01b600052602160045260246000fd5b6020810160038310610e1657610e16610dec565b91905290565b80356001600160a01b0381168114610e3357600080fd5b919050565b600060208284031215610e4a57600080fd5b610a4782610e1c565b600080600060408486031215610e6857600080fd5b83359250602084013567ffffffffffffffff80821115610e8757600080fd5b818601915086601f830112610e9b57600080fd5b813581811115610eaa57600080fd5b876020828501011115610ebc57600080fd5b6020830194508093505050509250925092565b600060208284031215610ee157600080fd5b813563ffffffff81168114610a4757600080fd5b60008060408385031215610f0857600080fd5b610f1183610e1c565b9150610f1f60208401610e1c565b90509250929050565b600060208284031215610f3a57600080fd5b5035919050565b8082018082111561084957634e487b7160e01b600052601160045260246000fd5b60548110610f7257610f72610dec565b9052565b8481526000602060018060a01b038616602084015260806040840152845180608085015260005b81811015610fb95786810183015185820160a001528201610f9d565b50600060a0828601015260a0601f19601f83011685010192505050610fe16060830184610f62565b95945050505050565b600060208284031215610ffc57600080fd5b5051919050565b82815260408101610a476020830184610f6256fe9e7b61f58c47dc699ac88507c4f5bb9f121c03808c5676a8078fe583e4649700a26469706673582212202c96c6bcc81bbd9f1300d51c52e5cf315db72624afc97ae5fe32cddfb0234e8064736f6c63430008180033",
  "linkReferences": {},
  "deployedLinkReferences": {}
}