{
  "_format": "hh-sol-artifact-1",
  "contractName": "CommonPitfalls",
  "sourceName": "contracts/antipatterns/CommonPitfalls.sol",
  "abi": [
    {
      "inputs": [],
      "name": "ZamaProtocolUnsupported",
      "type": "error"
    },
    {
      "anonymous": false,
      "inputs": [
        {
          "indexed": false,
          "internalType": "euint32",
          "name": "encryptedNewValue",
          "type": "bytes32"
        }
      ],
      "name": "ValueChanged",
      "type": "event"
    },
    {
      "anonymous": false,
      "inputs": [
        {
          "indexed": true,
          "internalType": "address",
          "name": "user",
          "type": "address"
        }
      ],
      "name": "ValueChangedSafe",
      "type": "event"
    },
    {
      "inputs": [],
      "name": "confidentialProtocolId",
      "outputs": [
        {
          "internalType": "uint256",
          "name": "",
          "type": "uint256"
        }
      ],
      "stateMutability": "view",
      "type": "function"
    },
    {
      "inputs": [
        {
          "internalType": "externalEuint32",
          "name": "externalValue",
          "type": "bytes32"
        },
        {
          "internalType": "bytes",
          "name": "inputProof",
          "type": "bytes"
        }
      ],
      "name": "correct_Pattern",
      "outputs": [],
      "stateMutability": "nonpayable",
      "type": "function"
    },
    {
      "inputs": [],
      "name": "getEncryptedValue",
      "outputs": [
        {
          "internalType": "euint32",
          "name": "",
          "type": "bytes32"
        }
      ],
      "stateMutability": "view",
      "type": "function"
    },
    {
      "inputs": [
        {
          "internalType": "externalEuint32",
          "name": "secret",
          "type": "bytes32"
        },
        {
          "internalType": "bytes",
          "name": "inputProof",
          "type": "bytes"
        }
      ],
      "name": "pitfall_AccessControl",
      "outputs": [],
      "stateMutability": "nonpayable",
      "type": "function"
    },
    {
      "inputs": [
        {
          "internalType": "externalEuint32",
          "name": "externalValue",
          "type": "bytes32"
        },
        {
          "internalType": "bytes",
          "name": "inputProof",
          "type": "bytes"
        }
      ],
      "name": "pitfall_InputProofValidation",
      "outputs": [],
      "stateMutability": "nonpayable",
      "type": "function"
    },
    {
      "inputs": [
        {
          "internalType": "externalEuint32",
          "name": "externalValue",
          "type": "bytes32"
        },
        {
          "internalType": "bytes",
          "name": "inputProof",
          "type": "bytes"
        }
      ],
      "name": "pitfall_MissingAllowThis",
      "outputs": [],
      "stateMutability": "nonpayable",
      "type": "function"
    },
    {
      "inputs": [
        {
          "internalType": "externalEuint32",
          "name": "newValue",
          "type": "bytes32"
        },
        {
          "internalType": "bytes",
          "name": "inputProof",
          "type": "bytes"
        }
      ],
      "name": "pitfall_PermissionsAfterModification",
      "outputs": [],
      "stateMutability": "nonpayable",
      "type": "function"
    },
    {
      "inputs": [],
      "name": "pitfall_TypeMismatch",
      "outputs": [],
      "stateMutability": "nonpayable",
      "type": "function"
    },
    {
      "inputs": [],
      "name": "pitfall_ViewFunctionEncrypted",
      "outputs": [
        {
          "internalType": "euint32",
          "name": "",
          "type": "bytes32"
        }
      ],
      "stateMutability": "view",
      "type": "function"
    }
  ],
  "bytecode": "0x608060405234801561001057600080fd5b506100c561001c6100ca565b80517f9e7b61f58c47dc699ac88507c4f5bb9f121c03808c5676a8078fe583e464970080546001600160a01b03199081166001600160a01b039384161790915560208301517f9e7b61f58c47dc699ac88507c4f5bb9f121c03808c5676a8078fe583e46497018054831691841691909117905560408301517f9e7b61f58c47dc699ac88507c4f5bb9f121c03808c5676a8078fe583e46497028054909216921691909117905550565b61023d565b6040805160608101825260008082526020820181905291810191909152466001036101255750604080516060808201835260008083526020808401829052928401819052835191820184528082529181018290529182015290565b4662aa36a7036101a55750604080516060808201835260008083526020808401829052928401528251908101835273f0ffdc93b7e186bc2f8cb3daa75d86d1930a433d81527392c920834ec8941d2c77d188936e1f7a6f49c1279181019190915273be0e383937d564d7ff0bc3b46c51f0bf8d5c311a9181019190915290565b46617a6903610224575060408051606080820183526000808352602080840182905292840152825190810183527350157cffd6bbfa2dece204a89ec419c23ef5755d815273e3a9105a3a932253a70f126eb1e3b589c643dd249181019190915273be0e383937d564d7ff0bc3b46c51f0bf8d5c311a9181019190915290565b6040516373cac13b60e01b815260040160405180910390fd5b6108dd8061024c6000396000f3fe608060405234801561001057600080fd5b50600436106100935760003560e01c80638927b030116100665780638927b030146100d357806398826e87146100ed5780639b3b4312146100ed578063aff149fb146100f5578063fa50abeb146100ab57600080fd5b806304c8d96f1461009857806328b2c856146100ad5780633250ef2b146100985780637a951bd1146100c0575b600080fd5b6100ab6100a6366004610748565b610108565b005b6100ab6100bb366004610748565b610169565b6100ab6100ce366004610748565b6101e0565b6100db6102d4565b60405190815260200160405180910390f35b6000546100db565b6100ab610103366004610748565b6102e3565b600061014a8484848080601f01602080910402602001604051908101604052809392919081815260200183838082843760009201919091525061038f92505050565b9050610155816103a4565b5061016081336103b4565b50600055505050565b60006101ab8484848080601f01602080910402602001604051908101604052809392919081815260200183838082843760009201919091525061038f92505050565b905060006101bb826000546103c7565b600081905590506101cb816103a4565b506101d8600054336103b4565b505050505050565b336102325760405162461bcd60e51b815260206004820152601e60248201527f436f6d6d6f6e50697466616c6c733a20696e76616c69642063616c6c6572000060448201526064015b60405180910390fd5b60006102748484848080601f01602080910402602001604051908101604052809392919081815260200183838082843760009201919091525061038f92505050565b90506000610284826000546103c7565b60008190559050610294816103a4565b506102a1600054336103b4565b5060405133907f393e785389fc437713a36bf37e3ba0a62cd6818921757b4758709e73b33aef9290600090a25050505050565b60006102de6103f9565b905090565b336103305760405162461bcd60e51b815260206004820152601c60248201527f436f6d6d6f6e50697466616c6c733a207a65726f2061646472657373000000006044820152606401610229565b60006103728484848080601f01602080910402602001604051908101604052809392919081815260200183838082843760009201919091525061038f92505050565b905061037d816103a4565b5061038881336103b4565b5050505050565b600061039d83836004610430565b9392505050565b60006103b08230610547565b5090565b60006103c08383610547565b5090919050565b6000826103db576103d860006105c4565b92505b816103ed576103ea60006105c4565b91505b61039d838360006105dd565b6000466001036104095750600190565b4662aa36a70361041a575061271190565b46617a690361042a575060001990565b50600090565b7f9e7b61f58c47dc699ac88507c4f5bb9f121c03808c5676a8078fe583e46497015460405163045fc19560e11b8152600091600080516020610888833981519152916001600160a01b03909116906308bf832a906104989088903390899089906004016107e6565b6020604051808303816000875af11580156104b7573d6000803e3d6000fd5b505050506040513d601f19601f820116820180604052508101906104db919061085a565b8154604051630f8e573b60e21b8152600481018390523360248201529193506001600160a01b031690633e395cec90604401600060405180830381600087803b15801561052757600080fd5b505af115801561053b573d6000803e3d6000fd5b50505050509392505050565b60006000805160206108888339815191528054604051635ca4b5b160e11b8152600481018690526001600160a01b03858116602483015292935091169063b9496b6290604401600060405180830381600087803b1580156105a757600080fd5b505af11580156105bb573d6000803e3d6000fd5b50505050505050565b60006105d78263ffffffff166004610699565b92915050565b60008082156105f15750600160f81b6105f5565b5060005b6000600080516020610888833981519152600181015460405163022f65e760e31b815260048101899052602481018890526001600160f81b0319851660448201529192506001600160a01b03169063117b2f38906064016020604051808303816000875af115801561066b573d6000803e3d6000fd5b505050506040513d601f19601f8201168201806040525081019061068f919061085a565b9695505050505050565b7f9e7b61f58c47dc699ac88507c4f5bb9f121c03808c5676a8078fe583e464970154604051639cd07acb60e01b8152600091600080516020610888833981519152916001600160a01b0390911690639cd07acb906106fd9087908790600401610873565b6020604051808303816000875af115801561071c573d6000803e3d6000fd5b505050506040513d601f19601f82011682018060405250810190610740919061085a565b949350505050565b60008060006040848603121561075d57600080fd5b83359250602084013567ffffffffffffffff8082111561077c57600080fd5b818601915086601f83011261079057600080fd5b81358181111561079f57600080fd5b8760208285010111156107b157600080fd5b6020830194508093505050509250925092565b605481106107e257634e487b7160e01b600052602160045260246000fd5b9052565b8481526000602060018060a01b038616602084015260806040840152845180608085015260005b818110156108295786810183015185820160a00152820161080d565b50600060a0828601015260a0601f19601f8301168501019250505061085160608301846107c4565b95945050505050565b60006020828403121561086c57600080fd5b5051919050565b8281526040810161039d60208301846107c456fe9e7b61f58c47dc699ac88507c4f5bb9f121c03808c5676a8078fe583e4649700a2646970667358221220a26357cdd637ac5f515dad94ca896bed7f9a2bd0b4a0df6b2bbe0360d3b42f3064736f6c63430008180033",
  "linkReferences": {},
  "deployedLinkReferences": {}
}