{
  "_format": "hh-sol-artifact-1",
  "contractName": "UserDecryptMultipleValues",
  "sourceName": "contracts/decryption/UserDecryptMultipleValues.sol",
  "abi": [
    {
      "inputs": [],
      "name": "ZamaProtocolUnsupported",
      "type": "error"
    },
    {
      "anonymous": false,
      "inputs": [
        {
          "indexed": true,
          "internalType": "address",
          "name": "user",
          "type": "address"
        }
      ],
      "name": "ProfileCreated",
      "type": "event"
    },
    {
      "anonymous": false,
      "inputs": [
        {
          "indexed": true,
          "internalType": "address",
          "name": "user",
          "type": "address"
        }
      ],
      "name": "ProfileUpdated",
      "type": "event"
    },
    {
      "inputs": [],
      "name": "confidentialProtocolId",
      "outputs": [
        {
          "internalType": "uint256",
          "name": "",
          "type": "uint256"
        }
      ],
      "stateMutability": "view",
      "type": "function"
    },
    {
      "inputs": [
        {
          "internalType": "uint32",
          "name": "decryptedBalance",
          "type": "uint32"
        },
        {
          "internalType": "uint8",
          "name": "decryptedTier",
          "type": "uint8"
        },
        {
          "internalType": "uint32",
          "name": "decryptedScore",
          "type": "uint32"
        }
      ],
      "name": "confirmValuesRetrieved",
      "outputs": [],
      "stateMutability": "nonpayable",
      "type": "function"
    },
    {
      "inputs": [
        {
          "internalType": "externalEuint32",
          "name": "balance",
          "type": "bytes32"
        },
        {
          "internalType": "externalEuint8",
          "name": "tier",
          "type": "bytes32"
        },
        {
          "internalType": "externalEuint32",
          "name": "score",
          "type": "bytes32"
        },
        {
          "internalType": "bytes",
          "name": "balanceProof",
          "type": "bytes"
        },
        {
          "internalType": "bytes",
          "name": "tierProof",
          "type": "bytes"
        },
        {
          "internalType": "bytes",
          "name": "scoreProof",
          "type": "bytes"
        }
      ],
      "name": "createProfile",
      "outputs": [],
      "stateMutability": "nonpayable",
      "type": "function"
    },
    {
      "inputs": [],
      "name": "getEncryptedBalance",
      "outputs": [
        {
          "internalType": "euint32",
          "name": "",
          "type": "bytes32"
        }
      ],
      "stateMutability": "view",
      "type": "function"
    },
    {
      "inputs": [],
      "name": "getEncryptedScore",
      "outputs": [
        {
          "internalType": "euint32",
          "name": "",
          "type": "bytes32"
        }
      ],
      "stateMutability": "view",
      "type": "function"
    },
    {
      "inputs": [],
      "name": "getEncryptedTier",
      "outputs": [
        {
          "internalType": "euint8",
          "name": "",
          "type": "bytes32"
        }
      ],
      "stateMutability": "view",
      "type": "function"
    },
    {
      "inputs": [],
      "name": "isProfileInitialized",
      "outputs": [
        {
          "internalType": "bool",
          "name": "",
          "type": "bool"
        }
      ],
      "stateMutability": "view",
      "type": "function"
    },
    {
      "inputs": [
        {
          "internalType": "externalEuint32",
          "name": "newBalance",
          "type": "bytes32"
        },
        {
          "internalType": "externalEuint8",
          "name": "newTier",
          "type": "bytes32"
        },
        {
          "internalType": "externalEuint32",
          "name": "newScore",
          "type": "bytes32"
        },
        {
          "internalType": "bytes",
          "name": "balanceProof",
          "type": "bytes"
        },
        {
          "internalType": "bytes",
          "name": "tierProof",
          "type": "bytes"
        },
        {
          "internalType": "bytes",
          "name": "scoreProof",
          "type": "bytes"
        }
      ],
      "name": "updateProfile",
      "outputs": [],
      "stateMutability": "nonpayable",
      "type": "function"
    },
    {
      "inputs": [
        {
          "internalType": "address",
          "name": "user",
          "type": "address"
        }
      ],
      "name": "userHasProfile",
      "outputs": [
        {
          "internalType": "bool",
          "name": "",
          "type": "bool"
        }
      ],
      "stateMutability": "view",
      "type": "function"
    }
  ],
  "bytecode": "0x608060405234801561001057600080fd5b506100c561001c6100ca565b80517f9e7b61f58c47dc699ac88507c4f5bb9f121c03808c5676a8078fe583e464970080546001600160a01b03199081166001600160a01b039384161790915560208301517f9e7b61f58c47dc699ac88507c4f5bb9f121c03808c5676a8078fe583e46497018054831691841691909117905560408301517f9e7b61f58c47dc699ac88507c4f5bb9f121c03808c5676a8078fe583e46497028054909216921691909117905550565b61023d565b6040805160608101825260008082526020820181905291810191909152466001036101255750604080516060808201835260008083526020808401829052928401819052835191820184528082529181018290529182015290565b4662aa36a7036101a55750604080516060808201835260008083526020808401829052928401528251908101835273f0ffdc93b7e186bc2f8cb3daa75d86d1930a433d81527392c920834ec8941d2c77d188936e1f7a6f49c1279181019190915273be0e383937d564d7ff0bc3b46c51f0bf8d5c311a9181019190915290565b46617a6903610224575060408051606080820183526000808352602080840182905292840152825190810183527350157cffd6bbfa2dece204a89ec419c23ef5755d815273e3a9105a3a932253a70f126eb1e3b589c643dd249181019190915273be0e383937d564d7ff0bc3b46c51f0bf8d5c311a9181019190915290565b6040516373cac13b60e01b815260040160405180910390fd5b610be68061024c6000396000f3fe608060405234801561001057600080fd5b50600436106100935760003560e01c80638927b030116100665780638927b0301461011b5780639cd5233814610123578063a57f5f5814610136578063cc1f4fad1461013e578063f2d10f5d1461014657600080fd5b8063075a43cd146100985780630a9981e8146100c457806335a9160f146100da57806352a3f50814610106575b600080fd5b3360009081526020819052604090206003015460ff165b60405190151581526020015b60405180910390f35b6100cc610159565b6040519081526020016100bb565b6100af6100e8366004610938565b6001600160a01b031660009081526001602052604090205460ff1690565b6101196101143660046109aa565b6101a8565b005b6100cc610393565b610119610131366004610a7c565b6103a2565b6100cc610401565b6100cc610444565b6101196101543660046109aa565b61048a565b3360009081526001602052604081205460ff166101915760405162461bcd60e51b815260040161018890610ac7565b60405180910390fd5b503360009081526020819052604090206002015490565b3360009081526001602052604090205460ff166101d75760405162461bcd60e51b815260040161018890610ac7565b60006102198a88888080601f01602080910402602001604051908101604052809392919081815260200183838082843760009201919091525061070392505050565b9050600061025d8a87878080601f01602080910402602001604051908101604052809392919081815260200183838082843760009201919091525061071892505050565b905060006102a18a86868080601f01602080910402602001604051908101604052809392919081815260200183838082843760009201919091525061070392505050565b3360009081526020819052604090208481556001810184905560020181905590506102cb83610726565b50336000818152602081905260409020546102e591610736565b503360009081526020819052604090206001015461030290610726565b503360008181526020819052604090206001015461031f91610736565b503360009081526020819052604090206002015461033c90610726565b503360008181526020819052604090206002015461035991610736565b5060405133907fbe4ec58a792f909e102ee3d745d0c3b34a4d437a54d903c4db098d31c556422f90600090a2505050505050505050505050565b600061039d610749565b905090565b3360009081526001602052604090205460ff166103d15760405162461bcd60e51b815260040161018890610ac7565b60405133907fbe4ec58a792f909e102ee3d745d0c3b34a4d437a54d903c4db098d31c556422f90600090a2505050565b3360009081526001602052604081205460ff166104305760405162461bcd60e51b815260040161018890610ac7565b503360009081526020819052604090205490565b3360009081526001602052604081205460ff166104735760405162461bcd60e51b815260040161018890610ac7565b503360009081526020819052604090206001015490565b3360009081526001602052604090205460ff16156104fc5760405162461bcd60e51b815260206004820152602960248201527f55736572446563727970744d756c7469706c6556616c7565733a2070726f66696044820152686c652065786973747360b81b6064820152608401610188565b600061053e8a88888080601f01602080910402602001604051908101604052809392919081815260200183838082843760009201919091525061070392505050565b905060006105828a87878080601f01602080910402602001604051908101604052809392919081815260200183838082843760009201919091525061071892505050565b905060006105c68a86868080601f01602080910402602001604051908101604052809392919081815260200183838082843760009201919091525061070392505050565b6040805160808101825285815260208082018681528284018581526001606085018181523360009081528086528781209651875593518683015591516002860155905160038501805491151560ff19928316179055818452948220805490951617909355919091525490915061063b90610726565b503360008181526020819052604090205461065591610736565b503360009081526020819052604090206001015461067290610726565b503360008181526020819052604090206001015461068f91610736565b50336000908152602081905260409020600201546106ac90610726565b50336000818152602081905260409020600201546106c991610736565b5060405133907ff10ec97e920cde75887622583772c637595a40b1f7777c18e51ea36cd127475c90600090a2505050505050505050505050565b600061071183836004610780565b9392505050565b600061071183836002610780565b600061073282306108a9565b5090565b600061074283836108a9565b5090919050565b6000466001036107595750600190565b4662aa36a70361076a575061271190565b46617a690361077a575060001990565b50600090565b7f9e7b61f58c47dc699ac88507c4f5bb9f121c03808c5676a8078fe583e46497015460405163045fc19560e11b81526000917f9e7b61f58c47dc699ac88507c4f5bb9f121c03808c5676a8078fe583e4649700916001600160a01b03909116906308bf832a906107fa908890339089908990600401610b0c565b6020604051808303816000875af1158015610819573d6000803e3d6000fd5b505050506040513d601f19601f8201168201806040525081019061083d9190610b97565b8154604051630f8e573b60e21b8152600481018390523360248201529193506001600160a01b031690633e395cec90604401600060405180830381600087803b15801561088957600080fd5b505af115801561089d573d6000803e3d6000fd5b50505050509392505050565b60007f9e7b61f58c47dc699ac88507c4f5bb9f121c03808c5676a8078fe583e46497008054604051635ca4b5b160e11b8152600481018690526001600160a01b03858116602483015292935091169063b9496b6290604401600060405180830381600087803b15801561091b57600080fd5b505af115801561092f573d6000803e3d6000fd5b50505050505050565b60006020828403121561094a57600080fd5b81356001600160a01b038116811461071157600080fd5b60008083601f84011261097357600080fd5b50813567ffffffffffffffff81111561098b57600080fd5b6020830191508360208285010111156109a357600080fd5b9250929050565b600080600080600080600080600060c08a8c0312156109c857600080fd5b8935985060208a0135975060408a0135965060608a013567ffffffffffffffff808211156109f557600080fd5b610a018d838e01610961565b909850965060808c0135915080821115610a1a57600080fd5b610a268d838e01610961565b909650945060a08c0135915080821115610a3f57600080fd5b50610a4c8c828d01610961565b915080935050809150509295985092959850929598565b803563ffffffff81168114610a7757600080fd5b919050565b600080600060608486031215610a9157600080fd5b610a9a84610a63565b9250602084013560ff81168114610ab057600080fd5b9150610abe60408501610a63565b90509250925092565b60208082526025908201527f55736572446563727970744d756c7469706c6556616c7565733a206e6f2070726040820152646f66696c6560d81b606082015260800190565b8481526000602060018060a01b038616602084015260806040840152845180608085015260005b81811015610b4f5786810183015185820160a001528201610b33565b50600060a0828601015260a0601f19601f8301168501019250505060548310610b8857634e487b7160e01b600052602160045260246000fd5b82606083015295945050505050565b600060208284031215610ba957600080fd5b505191905056fea2646970667358221220d9d20be8d15456b25b418d827b6338c2794516dda9ef33bab58786e00b136b4964736f6c63430008180033",
  "linkReferences": {},
  "deployedLinkReferences": {}
}