{
  "_format": "hh-sol-artifact-1",
  "contractName": "AnonymousMembership",
  "sourceName": "contracts/AnonymousMembership.sol",
  "abi": [
    {
      "inputs": [],
      "stateMutability": "nonpayable",
      "type": "constructor"
    },
    {
      "inputs": [],
      "name": "ZamaProtocolUnsupported",
      "type": "error"
    },
    {
      "anonymous": false,
      "inputs": [
        {
          "indexed": true,
          "internalType": "uint32",
          "name": "memberId",
          "type": "uint32"
        }
      ],
      "name": "MemberDeactivated",
      "type": "event"
    },
    {
      "anonymous": false,
      "inputs": [
        {
          "indexed": true,
          "internalType": "uint32",
          "name": "memberId",
          "type": "uint32"
        },
        {
          "indexed": false,
          "internalType": "uint32",
          "name": "newLevel",
          "type": "uint32"
        }
      ],
      "name": "MemberLevelUpdated",
      "type": "event"
    },
    {
      "anonymous": false,
      "inputs": [
        {
          "indexed": true,
          "internalType": "uint32",
          "name": "memberId",
          "type": "uint32"
        },
        {
          "indexed": true,
          "internalType": "address",
          "name": "wallet",
          "type": "address"
        },
        {
          "indexed": false,
          "internalType": "bool",
          "name": "isAnonymous",
          "type": "bool"
        }
      ],
      "name": "MemberRegistered",
      "type": "event"
    },
    {
      "anonymous": false,
      "inputs": [
        {
          "indexed": true,
          "internalType": "uint32",
          "name": "levelId",
          "type": "uint32"
        },
        {
          "indexed": false,
          "internalType": "string",
          "name": "name",
          "type": "string"
        }
      ],
      "name": "MembershipLevelCreated",
      "type": "event"
    },
    {
      "anonymous": false,
      "inputs": [
        {
          "indexed": true,
          "internalType": "uint32",
          "name": "memberId",
          "type": "uint32"
        },
        {
          "indexed": false,
          "internalType": "uint256",
          "name": "timestamp",
          "type": "uint256"
        }
      ],
      "name": "PrivateActivityRecorded",
      "type": "event"
    },
    {
      "inputs": [],
      "name": "confidentialProtocolId",
      "outputs": [
        {
          "internalType": "uint256",
          "name": "",
          "type": "uint256"
        }
      ],
      "stateMutability": "view",
      "type": "function"
    },
    {
      "inputs": [
        {
          "internalType": "string",
          "name": "name",
          "type": "string"
        },
        {
          "internalType": "uint32",
          "name": "requiredScore",
          "type": "uint32"
        },
        {
          "internalType": "uint64",
          "name": "benefits",
          "type": "uint64"
        }
      ],
      "name": "createMembershipLevel",
      "outputs": [],
      "stateMutability": "nonpayable",
      "type": "function"
    },
    {
      "inputs": [
        {
          "internalType": "uint32",
          "name": "memberId",
          "type": "uint32"
        }
      ],
      "name": "deactivateMember",
      "outputs": [],
      "stateMutability": "nonpayable",
      "type": "function"
    },
    {
      "inputs": [],
      "name": "generateAnonymousToken",
      "outputs": [
        {
          "internalType": "bytes32",
          "name": "",
          "type": "bytes32"
        }
      ],
      "stateMutability": "view",
      "type": "function"
    },
    {
      "inputs": [
        {
          "internalType": "uint32",
          "name": "memberId",
          "type": "uint32"
        }
      ],
      "name": "getMemberInfo",
      "outputs": [
        {
          "internalType": "bool",
          "name": "isActive",
          "type": "bool"
        },
        {
          "internalType": "bool",
          "name": "isAnonymous",
          "type": "bool"
        },
        {
          "internalType": "address",
          "name": "wallet",
          "type": "address"
        },
        {
          "internalType": "uint256",
          "name": "publicJoinTime",
          "type": "uint256"
        },
        {
          "internalType": "uint256",
          "name": "activityCount",
          "type": "uint256"
        }
      ],
      "stateMutability": "view",
      "type": "function"
    },
    {
      "inputs": [
        {
          "internalType": "uint32",
          "name": "levelId",
          "type": "uint32"
        }
      ],
      "name": "getMembershipLevelInfo",
      "outputs": [
        {
          "internalType": "string",
          "name": "name",
          "type": "string"
        },
        {
          "internalType": "bool",
          "name": "isActive",
          "type": "bool"
        }
      ],
      "stateMutability": "view",
      "type": "function"
    },
    {
      "inputs": [],
      "name": "getMyMemberId",
      "outputs": [
        {
          "internalType": "uint32",
          "name": "",
          "type": "uint32"
        }
      ],
      "stateMutability": "view",
      "type": "function"
    },
    {
      "inputs": [],
      "name": "getSystemStats",
      "outputs": [
        {
          "internalType": "uint32",
          "name": "totalMembersCount",
          "type": "uint32"
        },
        {
          "internalType": "uint32",
          "name": "totalLevels",
          "type": "uint32"
        },
        {
          "internalType": "uint32",
          "name": "nextMemberId",
          "type": "uint32"
        }
      ],
      "stateMutability": "view",
      "type": "function"
    },
    {
      "inputs": [
        {
          "internalType": "address",
          "name": "wallet",
          "type": "address"
        }
      ],
      "name": "isMember",
      "outputs": [
        {
          "internalType": "bool",
          "name": "",
          "type": "bool"
        }
      ],
      "stateMutability": "view",
      "type": "function"
    },
    {
      "inputs": [],
      "name": "levelCounter",
      "outputs": [
        {
          "internalType": "uint32",
          "name": "",
          "type": "uint32"
        }
      ],
      "stateMutability": "view",
      "type": "function"
    },
    {
      "inputs": [
        {
          "internalType": "uint32",
          "name": "",
          "type": "uint32"
        },
        {
          "internalType": "uint256",
          "name": "",
          "type": "uint256"
        }
      ],
      "name": "memberActivities",
      "outputs": [
        {
          "internalType": "euint32",
          "name": "encryptedMemberId",
          "type": "bytes32"
        },
        {
          "internalType": "euint64",
          "name": "encryptedActivityScore",
          "type": "bytes32"
        },
        {
          "internalType": "euint64",
          "name": "encryptedTimestamp",
          "type": "bytes32"
        },
        {
          "internalType": "bool",
          "name": "isProcessed",
          "type": "bool"
        }
      ],
      "stateMutability": "view",
      "type": "function"
    },
    {
      "inputs": [
        {
          "internalType": "uint32",
          "name": "",
          "type": "uint32"
        }
      ],
      "name": "members",
      "outputs": [
        {
          "internalType": "euint32",
          "name": "encryptedMemberId",
          "type": "bytes32"
        },
        {
          "internalType": "euint64",
          "name": "encryptedJoinTimestamp",
          "type": "bytes32"
        },
        {
          "internalType": "euint32",
          "name": "encryptedMembershipLevel",
          "type": "bytes32"
        },
        {
          "internalType": "bool",
          "name": "isActive",
          "type": "bool"
        },
        {
          "internalType": "bool",
          "name": "isAnonymous",
          "type": "bool"
        },
        {
          "internalType": "address",
          "name": "wallet",
          "type": "address"
        },
        {
          "internalType": "uint256",
          "name": "publicJoinTime",
          "type": "uint256"
        }
      ],
      "stateMutability": "view",
      "type": "function"
    },
    {
      "inputs": [],
      "name": "membershipIdCounter",
      "outputs": [
        {
          "internalType": "uint32",
          "name": "",
          "type": "uint32"
        }
      ],
      "stateMutability": "view",
      "type": "function"
    },
    {
      "inputs": [
        {
          "internalType": "uint32",
          "name": "",
          "type": "uint32"
        }
      ],
      "name": "membershipLevels",
      "outputs": [
        {
          "internalType": "string",
          "name": "name",
          "type": "string"
        },
        {
          "internalType": "euint32",
          "name": "encryptedRequiredScore",
          "type": "bytes32"
        },
        {
          "internalType": "euint64",
          "name": "encryptedBenefits",
          "type": "bytes32"
        },
        {
          "internalType": "bool",
          "name": "isActive",
          "type": "bool"
        }
      ],
      "stateMutability": "view",
      "type": "function"
    },
    {
      "inputs": [],
      "name": "owner",
      "outputs": [
        {
          "internalType": "address",
          "name": "",
          "type": "address"
        }
      ],
      "stateMutability": "view",
      "type": "function"
    },
    {
      "inputs": [],
      "name": "pauseSystem",
      "outputs": [],
      "stateMutability": "nonpayable",
      "type": "function"
    },
    {
      "inputs": [
        {
          "internalType": "uint32",
          "name": "activityScore",
          "type": "uint32"
        }
      ],
      "name": "recordPrivateActivity",
      "outputs": [],
      "stateMutability": "nonpayable",
      "type": "function"
    },
    {
      "inputs": [
        {
          "internalType": "bytes32",
          "name": "anonymousToken",
          "type": "bytes32"
        }
      ],
      "name": "registerAnonymousMember",
      "outputs": [],
      "stateMutability": "nonpayable",
      "type": "function"
    },
    {
      "inputs": [],
      "name": "registerPublicMember",
      "outputs": [],
      "stateMutability": "nonpayable",
      "type": "function"
    },
    {
      "inputs": [],
      "name": "totalMembers",
      "outputs": [
        {
          "internalType": "uint32",
          "name": "",
          "type": "uint32"
        }
      ],
      "stateMutability": "view",
      "type": "function"
    },
    {
      "inputs": [],
      "name": "unpauseSystem",
      "outputs": [],
      "stateMutability": "nonpayable",
      "type": "function"
    },
    {
      "inputs": [
        {
          "internalType": "uint32",
          "name": "memberId",
          "type": "uint32"
        }
      ],
      "name": "updateMemberLevel",
      "outputs": [],
      "stateMutability": "nonpayable",
      "type": "function"
    },
    {
      "inputs": [
        {
          "internalType": "bytes32",
          "name": "",
          "type": "bytes32"
        }
      ],
      "name": "usedAnonymousTokens",
      "outputs": [
        {
          "internalType": "bool",
          "name": "",
          "type": "bool"
        }
      ],
      "stateMutability": "view",
      "type": "function"
    },
    {
      "inputs": [
        {
          "internalType": "address",
          "name": "",
          "type": "address"
        }
      ],
      "name": "walletToMemberId",
      "outputs": [
        {
          "internalType": "uint32",
          "name": "",
          "type": "uint32"
        }
      ],
      "stateMutability": "view",
      "type": "function"
    }
  ],
  "bytecode": "0x60806040523480156200001157600080fd5b50620000a76200002062000103565b80516000805160206200229983398151915280546001600160a01b03199081166001600160a01b03938416179091556020830151600080516020620022798339815191528054831691841691909117905560408301517f9e7b61f58c47dc699ac88507c4f5bb9f121c03808c5676a8078fe583e46497028054909216921691909117905550565b6000805463ffffffff60c01b1933167fffffffff00000000ffffffff000000000000000000000000000000000000000090911617600160c01b1790556006805463ffffffff19166001179055620000fd62000279565b62000854565b6040805160608101825260008082526020820181905291810191909152466001036200015f5750604080516060808201835260008083526020808401829052928401819052835191820184528082529181018290529182015290565b4662aa36a703620001e05750604080516060808201835260008083526020808401829052928401528251908101835273f0ffdc93b7e186bc2f8cb3daa75d86d1930a433d81527392c920834ec8941d2c77d188936e1f7a6f49c1279181019190915273be0e383937d564d7ff0bc3b46c51f0bf8d5c311a9181019190915290565b46617a690362000260575060408051606080820183526000808352602080840182905292840152825190810183527350157cffd6bbfa2dece204a89ec419c23ef5755d815273e3a9105a3a932253a70f126eb1e3b589c643dd249181019190915273be0e383937d564d7ff0bc3b46c51f0bf8d5c311a9181019190915290565b6040516373cac13b60e01b815260040160405180910390fd5b60006200028760646200052b565b9050600062000297600162000546565b6040805160c0810182526006608082019081526542726f6e7a6560d01b60a08301528152602080820186905291810183905260016060820181905260005260039091528051919250907fa15bc60c955c405d20d9149c709e2460f1c2d9a497496a7f46004d1772c3054c9081906200031090826200073b565b5060208201516001820155604082015160028201556060909101516003909101805460ff19169115159190911790556200034a826200055e565b5062000356816200055e565b506000620003666101f46200052b565b9050600062000376600262000546565b6040805160c0810182526006608082019081526529b4b63b32b960d11b60a08301528152602080820186905291810183905260016060820152600260005260039091528051919250907fc3a24b0501bd2c13a7e57f2db4369ec4c223447539fc0724a9d55ac4a06ebd4d908190620003ef90826200073b565b5060208201516001820155604082015160028201556060909101516003909101805460ff191691151591909117905562000429826200055e565b5062000435816200055e565b506000620004456103e86200052b565b9050600062000455600562000546565b6040805160c0810182526004608082019081526311dbdb1960e21b60a08301528152602080820186905291810183905260016060820152600360008190529091528051919250907fcbc4e5fb02c3d1de23a9f1e014b4d2ee5aeaea9505df5e855c9210bf472495af908190620004cc90826200073b565b5060208201516001820155604082015160028201556060909101516003909101805460ff191691151591909117905562000506826200055e565b5062000512816200055e565b50506006805463ffffffff191660041790555050505050565b60006200054063ffffffff8316600462000570565b92915050565b6000620005406001600160401b038316600562000570565b60006200056c823062000614565b5090565b6000805160206200227983398151915254604051639cd07acb60e01b815260009160008051602062002299833981519152916001600160a01b0390911690639cd07acb90620005c6908790879060040162000807565b6020604051808303816000875af1158015620005e6573d6000803e3d6000fd5b505050506040513d601f19601f820116820180604052508101906200060c91906200083a565b949350505050565b6000600080516020620022998339815191528054604051635ca4b5b160e11b8152600481018690526001600160a01b03858116602483015292935091169063b9496b6290604401600060405180830381600087803b1580156200067657600080fd5b505af11580156200068b573d6000803e3d6000fd5b50505050505050565b634e487b7160e01b600052604160045260246000fd5b600181811c90821680620006bf57607f821691505b602082108103620006e057634e487b7160e01b600052602260045260246000fd5b50919050565b601f82111562000736576000816000526020600020601f850160051c81016020861015620007115750805b601f850160051c820191505b8181101562000732578281556001016200071d565b5050505b505050565b81516001600160401b0381111562000757576200075762000694565b6200076f81620007688454620006aa565b84620006e6565b602080601f831160018114620007a757600084156200078e5750858301515b600019600386901b1c1916600185901b17855562000732565b600085815260208120601f198616915b82811015620007d857888601518255948401946001909101908401620007b7565b5085821015620007f75787850151600019600388901b60f8161c191681555b5050505050600190811b01905550565b82815260408101605483106200082d57634e487b7160e01b600052602160045260246000fd5b8260208301529392505050565b6000602082840312156200084d57600080fd5b5051919050565b611a1580620008646000396000f3fe608060405234801561001057600080fd5b50600436106101585760003560e01c806392966918116100c3578063c4061cf91161007c578063c4061cf91461044d578063d1ce59a714610470578063d4d697dd1461049f578063d8ba3bd8146104a7578063d9814fc3146104be578063dc1d4fb71461025757600080fd5b8063929669181461039e578063a230c524146103d3578063b037ff20146103f6578063b56c155714610417578063ba7bb8fb1461041f578063c2d79e971461043257600080fd5b80635fd2dc65116101155780635fd2dc65146103105780636718305a1461032057806376e92559146103335780638927b0301461034a5780638da5cb5b146103605780638daae9551461038b57600080fd5b80630239adec1461015d5780633f43814e146101895780634698c2d51461021c5780634c761240146102575780635143e7dd146102615780635f59bb4014610274575b600080fd5b61017061016b36600461156f565b6104d1565b60405161018094939291906115d0565b60405180910390f35b6101e461019736600461156f565b63ffffffff16600090815260016020908152604080832060038101546004918201549190935292205460ff80831694610100840490911693620100009093046001600160a01b0316929190565b60408051951515865293151560208601526001600160a01b03909216928401929092526060830191909152608082015260a001610180565b61024261022a366004611601565b60026020526000908152604090205463ffffffff1681565b60405163ffffffff9091168152602001610180565b61025f610586565b005b61025f61026f366004611658565b6105bb565b6102d061028236600461156f565b6001602081905260009182526040909120805491810154600282015460038301546004909301549192909160ff80831692610100810490911691620100009091046001600160a01b03169087565b604080519788526020880196909652948601939093529015156060850152151560808401526001600160a01b031660a083015260c082015260e001610180565b6006546102429063ffffffff1681565b61025f61032e36600461172a565b61070c565b60005461024290600160a01b900463ffffffff1681565b610352610a89565b604051908152602001610180565b600054610373906001600160a01b031681565b6040516001600160a01b039091168152602001610180565b61025f61039936600461156f565b610a98565b6103b16103ac366004611743565b610bb8565b6040805194855260208501939093529183015215156060820152608001610180565b6103e66103e1366004611601565b610c01565b6040519015158152602001610180565b61040961040436600461156f565b610c4e565b60405161018092919061176d565b61025f610d0d565b61025f61042d36600461156f565b610fcb565b3360009081526002602052604090205463ffffffff16610242565b6103e661045b36600461172a565b60056020526000908152604090205460ff1681565b61047861110c565b6040805163ffffffff94851681529284166020840152921691810191909152606001610180565b610352611152565b60005461024290600160c01b900463ffffffff1681565b61025f6104cc36600461156f565b6111d0565b6003602052600090815260409020805481906104ec90611791565b80601f016020809104026020016040519081016040528092919081815260200182805461051890611791565b80156105655780601f1061053a57610100808354040283529160200191610565565b820191906000526020600020905b81548152906001019060200180831161054857829003601f168201915b50505050600183015460028401546003909401549293909290915060ff1684565b6000546001600160a01b031633146105b95760405162461bcd60e51b81526004016105b0906117cb565b60405180910390fd5b565b6000546001600160a01b031633146105e55760405162461bcd60e51b81526004016105b0906117cb565b60006105f08361137c565b905060006105fd83611395565b6040805160808101825287815260208082018690528183018490526001606083015260065463ffffffff1660009081526003909152919091208151929350909181906106499082611844565b5060208201516001820155604082015160028201556060909101516003909101805460ff1916911515919091179055610681826113ac565b5061068b816113ac565b5060065460405163ffffffff909116907f065d5a97cdcca672d6c510cdf5c0f9644ff25b2306667d1ea68d55fae1057d7c906106c8908890611904565b60405180910390a26006805463ffffffff169060006106e68361192d565b91906101000a81548163ffffffff021916908363ffffffff160217905550505050505050565b3360009081526002602052604090205463ffffffff16156107645760405162461bcd60e51b8152602060048201526012602482015271105b1c9958591e481c9959da5cdd195c995960721b60448201526064016105b0565b60008181526005602052604090205460ff16156107b85760405162461bcd60e51b8152602060048201526012602482015271151bdad95b88185b1c9958591e481d5cd95960721b60448201526064016105b0565b806107f55760405162461bcd60e51b815260206004820152600d60248201526c24b73b30b634b2103a37b5b2b760991b60448201526064016105b0565b60008054600160c01b900463ffffffff168160186108128361192d565b91906101000a81548163ffffffff021916908363ffffffff1602179055509050600061083d8261137c565b9050600061084a42611395565b90506000610858600161137c565b90506040518060e00160405280848152602001838152602001828152602001600115158152602001600115158152602001336001600160a01b031681526020016000815250600160008663ffffffff1663ffffffff16815260200190815260200160002060008201518160000155602082015181600101556040820151816002015560608201518160030160006101000a81548160ff02191690831515021790555060808201518160030160016101000a81548160ff02191690831515021790555060a08201518160030160026101000a8154816001600160a01b0302191690836001600160a01b0316021790555060c082015181600401559050508360026000336001600160a01b03166001600160a01b0316815260200190815260200160002060006101000a81548163ffffffff021916908363ffffffff16021790555060016005600087815260200190815260200160002060006101000a81548160ff0219169083151502179055506000601481819054906101000a900463ffffffff16809291906109e69061192d565b91906101000a81548163ffffffff021916908363ffffffff16021790555050610a0e836113ac565b50610a18826113ac565b50610a22816113ac565b50610a2d83336113bc565b50610a3882336113bc565b50610a4381336113bc565b5060405160018152339063ffffffff8616907fc5955976975fef33a7024c66f9bc0a59855eea91cac322a3b853a2e568976ed49060200160405180910390a35050505050565b6000610a936113cf565b905090565b6000546001600160a01b03163314610ac25760405162461bcd60e51b81526004016105b0906117cb565b63ffffffff811660009081526001602052604090206003015460ff16610b2a5760405162461bcd60e51b815260206004820152601760248201527f4d656d62657220616c726561647920696e61637469766500000000000000000060448201526064016105b0565b63ffffffff8082166000908152600160205260408120600301805460ff191690558054600160a01b9004909116906014610b6383611950565b91906101000a81548163ffffffff021916908363ffffffff160217905550508063ffffffff167ffb92e519c1f434f4630b2ed6c36509d757f8793ebde7b8de1c31921966e0360a60405160405180910390a250565b60046020528160005260406000208181548110610bd457600080fd5b60009182526020909120600490910201805460018201546002830154600390930154919450925060ff1684565b6001600160a01b03811660009081526002602052604081205463ffffffff168015801590610c47575063ffffffff811660009081526001602052604090206003015460ff165b9392505050565b63ffffffff8116600090815260036020819052604082209081015481546060939291829160ff909116908290610c8390611791565b80601f0160208091040260200160405190810160405280929190818152602001828054610caf90611791565b8015610cfc5780601f10610cd157610100808354040283529160200191610cfc565b820191906000526020600020905b815481529060010190602001808311610cdf57829003601f168201915b505050505091509250925050915091565b3360009081526002602052604090205463ffffffff1615610d655760405162461bcd60e51b8152602060048201526012602482015271105b1c9958591e481c9959da5cdd195c995960721b60448201526064016105b0565b60008054600160c01b900463ffffffff16816018610d828361192d565b91906101000a81548163ffffffff021916908363ffffffff16021790555090506000610dad8261137c565b90506000610dba42611395565b90506000610dc8600161137c565b90506040518060e00160405280848152602001838152602001828152602001600115158152602001600015158152602001336001600160a01b0316815260200142815250600160008663ffffffff1663ffffffff16815260200190815260200160002060008201518160000155602082015181600101556040820151816002015560608201518160030160006101000a81548160ff02191690831515021790555060808201518160030160016101000a81548160ff02191690831515021790555060a08201518160030160026101000a8154816001600160a01b0302191690836001600160a01b0316021790555060c082015181600401559050508360026000336001600160a01b03166001600160a01b0316815260200190815260200160002060006101000a81548163ffffffff021916908363ffffffff1602179055506000601481819054906101000a900463ffffffff1680929190610f299061192d565b91906101000a81548163ffffffff021916908363ffffffff16021790555050610f51836113ac565b50610f5b826113ac565b50610f65816113ac565b50610f7083336113bc565b50610f7b82336113bc565b50610f8681336113bc565b5060405160008152339063ffffffff8616907fc5955976975fef33a7024c66f9bc0a59855eea91cac322a3b853a2e568976ed49060200160405180910390a350505050565b63ffffffff811660009081526001602052604090206003015460ff166110275760405162461bcd60e51b81526020600482015260116024820152704d656d626572206e6f742061637469766560781b60448201526064016105b0565b63ffffffff811660009081526004602052604081205490819003611049575050565b6001600a8210611057575060025b60198210611063575060035b600061106e8261137c565b63ffffffff851660009081526001602052604090206002018190559050611094816113ac565b5063ffffffff84166000908152600160205260409020600301546110c89082906201000090046001600160a01b03166113bc565b5060405163ffffffff83811682528516907f96957faac7b3e7b8f19501ab0d498fc73fe9adae71408e472dd74053d7c932c39060200160405180910390a250505050565b600080546006548291829163ffffffff600160a01b9092048216916111349160019116611970565b600060189054906101000a900463ffffffff16925092509250909192565b600080546001600160a01b0316331461117d5760405162461bcd60e51b81526004016105b0906117cb565b4244336040516020016111b593929190928352602083019190915260601b6bffffffffffffffffffffffff1916604082015260540190565b60405160208183030381529060405280519060200120905090565b3360009081526002602052604090205463ffffffff16801580159061120d575063ffffffff811660009081526001602052604090206003015460ff165b6112505760405162461bcd60e51b81526020600482015260146024820152732737ba1030b71030b1ba34bb329036b2b6b132b960611b60448201526064016105b0565b3360009081526002602052604081205463ffffffff16906112708261137c565b905060006112838563ffffffff16611395565b9050600061129042611395565b60408051608081018252858152602080820186815282840185815260006060850181815263ffffffff8c16825260048086529682208054600180820183559184529590922086519590970290960193845591519183019190915551600282015591516003909201805460ff191692151592909217909155909150611313846113ac565b5061131d836113ac565b50611327826113ac565b5061133283336113bc565b508463ffffffff167fe2682499af3f83fa29a0af9eb25579dbaa67453d7b8847da106fe1f20e8cf9de4260405161136b91815260200190565b60405180910390a250505050505050565b600061138f8263ffffffff166004611406565b92915050565b600061138f8267ffffffffffffffff166005611406565b60006113b882306114c7565b5090565b60006113c883836114c7565b5090919050565b6000466001036113df5750600190565b4662aa36a7036113f0575061271190565b46617a6903611400575060001990565b50600090565b7f9e7b61f58c47dc699ac88507c4f5bb9f121c03808c5676a8078fe583e464970154604051639cd07acb60e01b81526000917f9e7b61f58c47dc699ac88507c4f5bb9f121c03808c5676a8078fe583e4649700916001600160a01b0390911690639cd07acb9061147c9087908790600401611994565b6020604051808303816000875af115801561149b573d6000803e3d6000fd5b505050506040513d601f19601f820116820180604052508101906114bf91906119c6565b949350505050565b60007f9e7b61f58c47dc699ac88507c4f5bb9f121c03808c5676a8078fe583e46497008054604051635ca4b5b160e11b8152600481018690526001600160a01b03858116602483015292935091169063b9496b6290604401600060405180830381600087803b15801561153957600080fd5b505af115801561154d573d6000803e3d6000fd5b50505050505050565b803563ffffffff8116811461156a57600080fd5b919050565b60006020828403121561158157600080fd5b610c4782611556565b6000815180845260005b818110156115b057602081850181015186830182015201611594565b506000602082860101526020601f19601f83011685010191505092915050565b6080815260006115e3608083018761158a565b60208301959095525060408101929092521515606090910152919050565b60006020828403121561161357600080fd5b81356001600160a01b0381168114610c4757600080fd5b634e487b7160e01b600052604160045260246000fd5b803567ffffffffffffffff8116811461156a57600080fd5b60008060006060848603121561166d57600080fd5b833567ffffffffffffffff8082111561168557600080fd5b818601915086601f83011261169957600080fd5b8135818111156116ab576116ab61162a565b604051601f8201601f19908116603f011681019083821181831017156116d3576116d361162a565b816040528281528960208487010111156116ec57600080fd5b82602086016020830137600060208483010152809750505050505061171360208501611556565b915061172160408501611640565b90509250925092565b60006020828403121561173c57600080fd5b5035919050565b6000806040838503121561175657600080fd5b61175f83611556565b946020939093013593505050565b604081526000611780604083018561158a565b905082151560208301529392505050565b600181811c908216806117a557607f821691505b6020821081036117c557634e487b7160e01b600052602260045260246000fd5b50919050565b6020808252600e908201526d139bdd08185d5d1a1bdc9a5e995960921b604082015260600190565b601f82111561183f576000816000526020600020601f850160051c8101602086101561181c5750805b601f850160051c820191505b8181101561183b57828155600101611828565b5050505b505050565b815167ffffffffffffffff81111561185e5761185e61162a565b6118728161186c8454611791565b846117f3565b602080601f8311600181146118a7576000841561188f5750858301515b600019600386901b1c1916600185901b17855561183b565b600085815260208120601f198616915b828110156118d6578886015182559484019460019091019084016118b7565b50858210156118f45787850151600019600388901b60f8161c191681555b5050505050600190811b01905550565b602081526000610c47602083018461158a565b634e487b7160e01b600052601160045260246000fd5b600063ffffffff80831681810361194657611946611917565b6001019392505050565b600063ffffffff82168061196657611966611917565b6000190192915050565b63ffffffff82811682821603908082111561198d5761198d611917565b5092915050565b82815260408101605483106119b957634e487b7160e01b600052602160045260246000fd5b8260208301529392505050565b6000602082840312156119d857600080fd5b505191905056fea2646970667358221220eb0ed578380b15df0252103f78dddc7caf1b91c43fef37ec1d34e81fe6d68d8464736f6c634300081800339e7b61f58c47dc699ac88507c4f5bb9f121c03808c5676a8078fe583e46497019e7b61f58c47dc699ac88507c4f5bb9f121c03808c5676a8078fe583e4649700",
  "linkReferences": {},
  "deployedLinkReferences": {}
}