{
  "_format": "hh-sol-artifact-1",
  "contractName": "EqualityComparison",
  "sourceName": "contracts/basic/EqualityComparison.sol",
  "abi": [
    {
      "inputs": [
        {
          "internalType": "externalEuint32",
          "name": "target",
          "type": "bytes32"
        },
        {
          "internalType": "bytes",
          "name": "inputProof",
          "type": "bytes"
        }
      ],
      "stateMutability": "nonpayable",
      "type": "constructor"
    },
    {
      "inputs": [],
      "name": "ZamaProtocolUnsupported",
      "type": "error"
    },
    {
      "anonymous": false,
      "inputs": [
        {
          "indexed": true,
          "internalType": "address",
          "name": "guesser",
          "type": "address"
        }
      ],
      "name": "EqualityChecked",
      "type": "event"
    },
    {
      "inputs": [
        {
          "internalType": "externalEuint32",
          "name": "encryptedGuess",
          "type": "bytes32"
        },
        {
          "internalType": "bytes",
          "name": "inputProof",
          "type": "bytes"
        }
      ],
      "name": "checkEquality",
      "outputs": [
        {
          "internalType": "ebool",
          "name": "",
          "type": "bytes32"
        }
      ],
      "stateMutability": "nonpayable",
      "type": "function"
    },
    {
      "inputs": [
        {
          "internalType": "externalEuint32",
          "name": "encryptedA",
          "type": "bytes32"
        },
        {
          "internalType": "externalEuint32",
          "name": "encryptedB",
          "type": "bytes32"
        },
        {
          "internalType": "bytes",
          "name": "proofA",
          "type": "bytes"
        },
        {
          "internalType": "bytes",
          "name": "proofB",
          "type": "bytes"
        }
      ],
      "name": "compareValues",
      "outputs": [
        {
          "internalType": "ebool",
          "name": "",
          "type": "bytes32"
        }
      ],
      "stateMutability": "nonpayable",
      "type": "function"
    },
    {
      "inputs": [
        {
          "internalType": "externalEuint32",
          "name": "encryptedValue",
          "type": "bytes32"
        },
        {
          "internalType": "bytes",
          "name": "inputProof",
          "type": "bytes"
        }
      ],
      "name": "conditionalOperation",
      "outputs": [
        {
          "internalType": "ebool",
          "name": "",
          "type": "bytes32"
        }
      ],
      "stateMutability": "nonpayable",
      "type": "function"
    },
    {
      "inputs": [],
      "name": "confidentialProtocolId",
      "outputs": [
        {
          "internalType": "uint256",
          "name": "",
          "type": "uint256"
        }
      ],
      "stateMutability": "view",
      "type": "function"
    },
    {
      "inputs": [],
      "name": "getEncryptedTarget",
      "outputs": [
        {
          "internalType": "euint32",
          "name": "",
          "type": "bytes32"
        }
      ],
      "stateMutability": "view",
      "type": "function"
    },
    {
      "inputs": [
        {
          "internalType": "address",
          "name": "guesser",
          "type": "address"
        }
      ],
      "name": "getGuessCount",
      "outputs": [
        {
          "internalType": "uint32",
          "name": "",
          "type": "uint32"
        }
      ],
      "stateMutability": "view",
      "type": "function"
    },
    {
      "inputs": [
        {
          "internalType": "externalEuint32",
          "name": "newTarget",
          "type": "bytes32"
        },
        {
          "internalType": "bytes",
          "name": "inputProof",
          "type": "bytes"
        }
      ],
      "name": "updateTarget",
      "outputs": [],
      "stateMutability": "nonpayable",
      "type": "function"
    }
  ],
  "bytecode": "0x60806040523480156200001157600080fd5b5060405162000fde38038062000fde83398101604081905262000034916200045c565b620000c962000042620000f3565b805160008051602062000fbe83398151915280546001600160a01b03199081166001600160a01b0393841617909155602083015160008051602062000f9e8339815191528054831691841691909117905560408301517f9e7b61f58c47dc699ac88507c4f5bb9f121c03808c5676a8078fe583e46497028054909216921691909117905550565b6000620000d7838362000269565b60008190559050620000e98162000280565b50505050620005ac565b6040805160608101825260008082526020820181905291810191909152466001036200014f5750604080516060808201835260008083526020808401829052928401819052835191820184528082529181018290529182015290565b4662aa36a703620001d05750604080516060808201835260008083526020808401829052928401528251908101835273f0ffdc93b7e186bc2f8cb3daa75d86d1930a433d81527392c920834ec8941d2c77d188936e1f7a6f49c1279181019190915273be0e383937d564d7ff0bc3b46c51f0bf8d5c311a9181019190915290565b46617a690362000250575060408051606080820183526000808352602080840182905292840152825190810183527350157cffd6bbfa2dece204a89ec419c23ef5755d815273e3a9105a3a932253a70f126eb1e3b589c643dd249181019190915273be0e383937d564d7ff0bc3b46c51f0bf8d5c311a9181019190915290565b6040516373cac13b60e01b815260040160405180910390fd5b6000620002798383600462000292565b9392505050565b60006200028e8230620003a0565b5090565b60008051602062000f9e8339815191525460405163045fc19560e11b815260009160008051602062000fbe833981519152916001600160a01b03909116906308bf832a90620002ec90889033908990899060040162000521565b6020604051808303816000875af11580156200030c573d6000803e3d6000fd5b505050506040513d601f19601f8201168201806040525081019062000332919062000592565b8154604051630f8e573b60e21b8152600481018390523360248201529193506001600160a01b031690633e395cec90604401600060405180830381600087803b1580156200037f57600080fd5b505af115801562000394573d6000803e3d6000fd5b50505050509392505050565b600060008051602062000fbe8339815191528054604051635ca4b5b160e11b8152600481018690526001600160a01b03858116602483015292935091169063b9496b6290604401600060405180830381600087803b1580156200040257600080fd5b505af115801562000417573d6000803e3d6000fd5b50505050505050565b634e487b7160e01b600052604160045260246000fd5b60005b838110156200045357818101518382015260200162000439565b50506000910152565b600080604083850312156200047057600080fd5b825160208401519092506001600160401b03808211156200049057600080fd5b818501915085601f830112620004a557600080fd5b815181811115620004ba57620004ba62000420565b604051601f8201601f19908116603f01168101908382118183101715620004e557620004e562000420565b81604052828152886020848701011115620004ff57600080fd5b6200051283602083016020880162000436565b80955050505050509250929050565b84815260018060a01b03841660208201526080604082015260008351806080840152620005568160a085016020880162000436565b601f01601f1916820160a0019050605483106200058357634e487b7160e01b600052602160045260246000fd5b82606083015295945050505050565b600060208284031215620005a557600080fd5b5051919050565b6109e280620005bc6000396000f3fe608060405234801561001057600080fd5b506004361061007d5760003560e01c8063879b31511161005b578063879b3151146101015780638927b0301461011457806389edff5a1461011c578063f29102261461012457600080fd5b806304b1142c14610082578063101f5826146100cb578063416c762c146100e0575b600080fd5b6100b1610090366004610757565b6001600160a01b031660009081526001602052604090205463ffffffff1690565b60405163ffffffff90911681526020015b60405180910390f35b6100de6100d93660046107c9565b610137565b005b6100f36100ee366004610815565b610190565b6040519081526020016100c2565b6100f361010f3660046107c9565b610249565b6100f3610338565b6000546100f3565b6100f36101323660046107c9565b610347565b60006101798484848080601f0160208091040260200160405190810160405280939291908181526020018383808284376000920191909152506103a592505050565b60008190559050610189816103b3565b5050505050565b6000806101d38887878080601f0160208091040260200160405190810160405280939291908181526020018383808284376000920191909152506103a592505050565b905060006102178886868080601f0160208091040260200160405190810160405280939291908181526020018383808284376000920191909152506103a592505050565b9050600061022583836103c3565b9050610230816103b3565b5061023b81336103f5565b509998505050505050505050565b60008061028c8585858080601f0160208091040260200160405190810160405280939291908181526020018383808284376000920191909152506103a592505050565b9050600061029c600054836103c3565b336000908152600160205260408120805492935063ffffffff90921691906102c383610898565b91906101000a81548163ffffffff021916908363ffffffff16021790555050336001600160a01b03167f8a4fdbb2e49e15913bb7f0cf9105194bb5a65e5fda70d4792e98243ef082edb660405160405180910390a2610321816103b3565b5061032c81336103f5565b509150505b9392505050565b6000610342610408565b905090565b60008061038a8585858080601f0160208091040260200160405190810160405280939291908181526020018383808284376000920191909152506103a592505050565b9050600061039a826000546103c3565b9050610321816103b3565b60006103318383600461043f565b60006103bf8230610556565b5090565b6000826103d7576103d460006105d3565b92505b816103e9576103e660006105d3565b91505b610331838360006105ec565b60006104018383610556565b5090919050565b6000466001036104185750600190565b4662aa36a703610429575061271190565b46617a6903610439575060001990565b50600090565b7f9e7b61f58c47dc699ac88507c4f5bb9f121c03808c5676a8078fe583e46497015460405163045fc19560e11b815260009160008051602061098d833981519152916001600160a01b03909116906308bf832a906104a79088903390899089906004016108eb565b6020604051808303816000875af11580156104c6573d6000803e3d6000fd5b505050506040513d601f19601f820116820180604052508101906104ea919061095f565b8154604051630f8e573b60e21b8152600481018390523360248201529193506001600160a01b031690633e395cec90604401600060405180830381600087803b15801561053657600080fd5b505af115801561054a573d6000803e3d6000fd5b50505050509392505050565b600060008051602061098d8339815191528054604051635ca4b5b160e11b8152600481018690526001600160a01b03858116602483015292935091169063b9496b6290604401600060405180830381600087803b1580156105b657600080fd5b505af11580156105ca573d6000803e3d6000fd5b50505050505050565b60006105e68263ffffffff1660046106a8565b92915050565b60008082156106005750600160f81b610604565b5060005b600060008051602061098d833981519152600181015460405163f77f3f1d60e01b815260048101899052602481018890526001600160f81b0319851660448201529192506001600160a01b03169063f77f3f1d906064016020604051808303816000875af115801561067a573d6000803e3d6000fd5b505050506040513d601f19601f8201168201806040525081019061069e919061095f565b9695505050505050565b7f9e7b61f58c47dc699ac88507c4f5bb9f121c03808c5676a8078fe583e464970154604051639cd07acb60e01b815260009160008051602061098d833981519152916001600160a01b0390911690639cd07acb9061070c9087908790600401610978565b6020604051808303816000875af115801561072b573d6000803e3d6000fd5b505050506040513d601f19601f8201168201806040525081019061074f919061095f565b949350505050565b60006020828403121561076957600080fd5b81356001600160a01b038116811461033157600080fd5b60008083601f84011261079257600080fd5b50813567ffffffffffffffff8111156107aa57600080fd5b6020830191508360208285010111156107c257600080fd5b9250929050565b6000806000604084860312156107de57600080fd5b83359250602084013567ffffffffffffffff8111156107fc57600080fd5b61080886828701610780565b9497909650939450505050565b6000806000806000806080878903121561082e57600080fd5b8635955060208701359450604087013567ffffffffffffffff8082111561085457600080fd5b6108608a838b01610780565b9096509450606089013591508082111561087957600080fd5b5061088689828a01610780565b979a9699509497509295939492505050565b600063ffffffff8083168181036108bf57634e487b7160e01b600052601160045260246000fd5b6001019392505050565b605481106108e757634e487b7160e01b600052602160045260246000fd5b9052565b8481526000602060018060a01b038616602084015260806040840152845180608085015260005b8181101561092e5786810183015185820160a001528201610912565b50600060a0828601015260a0601f19601f8301168501019250505061095660608301846108c9565b95945050505050565b60006020828403121561097157600080fd5b5051919050565b8281526040810161033160208301846108c956fe9e7b61f58c47dc699ac88507c4f5bb9f121c03808c5676a8078fe583e4649700a2646970667358221220c01d8aa39e6ce9d5d1783e4153a172d4db5aedd855f30e3482e0249366c3ffbf64736f6c634300081800339e7b61f58c47dc699ac88507c4f5bb9f121c03808c5676a8078fe583e46497019e7b61f58c47dc699ac88507c4f5bb9f121c03808c5676a8078fe583e4649700",
  "linkReferences": {},
  "deployedLinkReferences": {}
}