{
  "_format": "hh-sol-artifact-1",
  "contractName": "ConfidentialERC20",
  "sourceName": "contracts/openzeppelin/ConfidentialERC20.sol",
  "abi": [
    {
      "inputs": [
        {
          "internalType": "string",
          "name": "_name",
          "type": "string"
        },
        {
          "internalType": "string",
          "name": "_symbol",
          "type": "string"
        },
        {
          "internalType": "uint8",
          "name": "_decimals",
          "type": "uint8"
        }
      ],
      "stateMutability": "nonpayable",
      "type": "constructor"
    },
    {
      "inputs": [],
      "name": "ZamaProtocolUnsupported",
      "type": "error"
    },
    {
      "anonymous": false,
      "inputs": [
        {
          "indexed": true,
          "internalType": "address",
          "name": "owner",
          "type": "address"
        },
        {
          "indexed": true,
          "internalType": "address",
          "name": "spender",
          "type": "address"
        }
      ],
      "name": "Approval",
      "type": "event"
    },
    {
      "anonymous": false,
      "inputs": [
        {
          "indexed": true,
          "internalType": "address",
          "name": "from",
          "type": "address"
        }
      ],
      "name": "Burn",
      "type": "event"
    },
    {
      "anonymous": false,
      "inputs": [
        {
          "indexed": true,
          "internalType": "address",
          "name": "to",
          "type": "address"
        }
      ],
      "name": "Mint",
      "type": "event"
    },
    {
      "anonymous": false,
      "inputs": [
        {
          "indexed": true,
          "internalType": "address",
          "name": "from",
          "type": "address"
        },
        {
          "indexed": true,
          "internalType": "address",
          "name": "to",
          "type": "address"
        }
      ],
      "name": "Transfer",
      "type": "event"
    },
    {
      "inputs": [
        {
          "internalType": "address",
          "name": "owner",
          "type": "address"
        },
        {
          "internalType": "address",
          "name": "spender",
          "type": "address"
        }
      ],
      "name": "allowance",
      "outputs": [
        {
          "internalType": "euint32",
          "name": "",
          "type": "bytes32"
        }
      ],
      "stateMutability": "view",
      "type": "function"
    },
    {
      "inputs": [
        {
          "internalType": "address",
          "name": "spender",
          "type": "address"
        },
        {
          "internalType": "externalEuint32",
          "name": "encryptedAmount",
          "type": "bytes32"
        },
        {
          "internalType": "bytes",
          "name": "inputProof",
          "type": "bytes"
        }
      ],
      "name": "approve",
      "outputs": [
        {
          "internalType": "bool",
          "name": "",
          "type": "bool"
        }
      ],
      "stateMutability": "nonpayable",
      "type": "function"
    },
    {
      "inputs": [
        {
          "internalType": "address",
          "name": "account",
          "type": "address"
        }
      ],
      "name": "balanceOf",
      "outputs": [
        {
          "internalType": "euint32",
          "name": "",
          "type": "bytes32"
        }
      ],
      "stateMutability": "view",
      "type": "function"
    },
    {
      "inputs": [
        {
          "internalType": "externalEuint32",
          "name": "encryptedAmount",
          "type": "bytes32"
        },
        {
          "internalType": "bytes",
          "name": "inputProof",
          "type": "bytes"
        }
      ],
      "name": "burn",
      "outputs": [],
      "stateMutability": "nonpayable",
      "type": "function"
    },
    {
      "inputs": [],
      "name": "confidentialProtocolId",
      "outputs": [
        {
          "internalType": "uint256",
          "name": "",
          "type": "uint256"
        }
      ],
      "stateMutability": "view",
      "type": "function"
    },
    {
      "inputs": [],
      "name": "decimals",
      "outputs": [
        {
          "internalType": "uint8",
          "name": "",
          "type": "uint8"
        }
      ],
      "stateMutability": "view",
      "type": "function"
    },
    {
      "inputs": [
        {
          "internalType": "address",
          "name": "spender",
          "type": "address"
        },
        {
          "internalType": "externalEuint32",
          "name": "encryptedSubtractedValue",
          "type": "bytes32"
        },
        {
          "internalType": "bytes",
          "name": "inputProof",
          "type": "bytes"
        }
      ],
      "name": "decreaseAllowance",
      "outputs": [
        {
          "internalType": "bool",
          "name": "",
          "type": "bool"
        }
      ],
      "stateMutability": "nonpayable",
      "type": "function"
    },
    {
      "inputs": [
        {
          "internalType": "address",
          "name": "spender",
          "type": "address"
        },
        {
          "internalType": "externalEuint32",
          "name": "encryptedAddedValue",
          "type": "bytes32"
        },
        {
          "internalType": "bytes",
          "name": "inputProof",
          "type": "bytes"
        }
      ],
      "name": "increaseAllowance",
      "outputs": [
        {
          "internalType": "bool",
          "name": "",
          "type": "bool"
        }
      ],
      "stateMutability": "nonpayable",
      "type": "function"
    },
    {
      "inputs": [
        {
          "internalType": "address",
          "name": "to",
          "type": "address"
        },
        {
          "internalType": "externalEuint32",
          "name": "encryptedAmount",
          "type": "bytes32"
        },
        {
          "internalType": "bytes",
          "name": "inputProof",
          "type": "bytes"
        }
      ],
      "name": "mint",
      "outputs": [],
      "stateMutability": "nonpayable",
      "type": "function"
    },
    {
      "inputs": [],
      "name": "name",
      "outputs": [
        {
          "internalType": "string",
          "name": "",
          "type": "string"
        }
      ],
      "stateMutability": "view",
      "type": "function"
    },
    {
      "inputs": [],
      "name": "symbol",
      "outputs": [
        {
          "internalType": "string",
          "name": "",
          "type": "string"
        }
      ],
      "stateMutability": "view",
      "type": "function"
    },
    {
      "inputs": [
        {
          "internalType": "address",
          "name": "to",
          "type": "address"
        },
        {
          "internalType": "externalEuint32",
          "name": "encryptedAmount",
          "type": "bytes32"
        },
        {
          "internalType": "bytes",
          "name": "inputProof",
          "type": "bytes"
        }
      ],
      "name": "transfer",
      "outputs": [
        {
          "internalType": "bool",
          "name": "",
          "type": "bool"
        }
      ],
      "stateMutability": "nonpayable",
      "type": "function"
    },
    {
      "inputs": [
        {
          "internalType": "address",
          "name": "from",
          "type": "address"
        },
        {
          "internalType": "address",
          "name": "to",
          "type": "address"
        },
        {
          "internalType": "externalEuint32",
          "name": "encryptedAmount",
          "type": "bytes32"
        },
        {
          "internalType": "bytes",
          "name": "inputProof",
          "type": "bytes"
        }
      ],
      "name": "transferFrom",
      "outputs": [
        {
          "internalType": "bool",
          "name": "",
          "type": "bool"
        }
      ],
      "stateMutability": "nonpayable",
      "type": "function"
    }
  ],
  "bytecode": "0x60806040523480156200001157600080fd5b5060405162001a3a38038062001a3a833981016040819052620000349162000364565b620000eb6200004262000126565b80517f9e7b61f58c47dc699ac88507c4f5bb9f121c03808c5676a8078fe583e464970080546001600160a01b03199081166001600160a01b039384161790915560208301517f9e7b61f58c47dc699ac88507c4f5bb9f121c03808c5676a8078fe583e46497018054831691841691909117905560408301517f9e7b61f58c47dc699ac88507c4f5bb9f121c03808c5676a8078fe583e46497028054909216921691909117905550565b6000620000f984826200047a565b5060016200010883826200047a565b506002805460ff191660ff9290921691909117905550620005469050565b604080516060810182526000808252602082018190529181019190915246600103620001825750604080516060808201835260008083526020808401829052928401819052835191820184528082529181018290529182015290565b4662aa36a703620002035750604080516060808201835260008083526020808401829052928401528251908101835273f0ffdc93b7e186bc2f8cb3daa75d86d1930a433d81527392c920834ec8941d2c77d188936e1f7a6f49c1279181019190915273be0e383937d564d7ff0bc3b46c51f0bf8d5c311a9181019190915290565b46617a690362000283575060408051606080820183526000808352602080840182905292840152825190810183527350157cffd6bbfa2dece204a89ec419c23ef5755d815273e3a9105a3a932253a70f126eb1e3b589c643dd249181019190915273be0e383937d564d7ff0bc3b46c51f0bf8d5c311a9181019190915290565b6040516373cac13b60e01b815260040160405180910390fd5b634e487b7160e01b600052604160045260246000fd5b600082601f830112620002c457600080fd5b81516001600160401b0380821115620002e157620002e16200029c565b604051601f8301601f19908116603f011681019082821181831017156200030c576200030c6200029c565b81604052838152602092508660208588010111156200032a57600080fd5b600091505b838210156200034e57858201830151818301840152908201906200032f565b6000602085830101528094505050505092915050565b6000806000606084860312156200037a57600080fd5b83516001600160401b03808211156200039257600080fd5b620003a087838801620002b2565b94506020860151915080821115620003b757600080fd5b50620003c686828701620002b2565b925050604084015160ff81168114620003de57600080fd5b809150509250925092565b600181811c90821680620003fe57607f821691505b6020821081036200041f57634e487b7160e01b600052602260045260246000fd5b50919050565b601f82111562000475576000816000526020600020601f850160051c81016020861015620004505750805b601f850160051c820191505b8181101562000471578281556001016200045c565b5050505b505050565b81516001600160401b038111156200049657620004966200029c565b620004ae81620004a78454620003e9565b8462000425565b602080601f831160018114620004e65760008415620004cd5750858301515b600019600386901b1c1916600185901b17855562000471565b600085815260208120601f198616915b828110156200051757888601518255948401946001909101908401620004f6565b5085821015620005365787850151600019600388901b60f8161c191681555b5050505050600190811b01905550565b6114e480620005566000396000f3fe608060405234801561001057600080fd5b50600436106100cf5760003560e01c80638927b0301161008c5780639d668f2f116100665780639d668f2f146101b6578063b32c1001146101c9578063b6483bab146101dc578063dd62ed3e146101ef57600080fd5b80638927b0301461019357806395d89b411461019b5780639a094352146101a357600080fd5b806306fdde03146100d4578063313ce567146100f25780634a2cbbc9146101115780636c79b70b1461013457806370a08231146101495780637b7e0a5a14610180575b600080fd5b6100dc610228565b6040516100e991906111d1565b60405180910390f35b6002546100ff9060ff1681565b60405160ff90911681526020016100e9565b61012461011f366004611249565b6102b6565b60405190151581526020016100e9565b6101476101423660046112a3565b61046c565b005b6101726101573660046112ef565b6001600160a01b031660009081526003602052604090205490565b6040519081526020016100e9565b61012461018e366004611249565b610532565b6101726106f8565b6100dc610707565b6101246101b136600461130a565b610714565b6101246101c4366004611249565b610a32565b6101246101d7366004611249565b610b14565b6101476101ea366004611249565b610bef565b6101726101fd366004611379565b6001600160a01b03918216600090815260046020908152604080832093909416825291909152205490565b60008054610235906113ac565b80601f0160208091040260200160405190810160405280929190818152602001828054610261906113ac565b80156102ae5780601f10610283576101008083540402835291602001916102ae565b820191906000526020600020905b81548152906001019060200180831161029157829003601f168201915b505050505081565b60006001600160a01b03851661032a5760405162461bcd60e51b815260206004820152602e60248201527f436f6e666964656e7469616c45524332303a20696e63726561736520616c6c6f60448201526d77616e636520666f72207a65726f60901b60648201526084015b60405180910390fd5b600061036c8585858080601f016020809104026020016040519081016040528093929190818152602001838380828437600092019190915250610d4192505050565b3360009081526004602090815260408083206001600160a01b038b16845290915290205490915061039d9082610d56565b3360009081526004602090815260408083206001600160a01b038b16845290915290208190556103cc90610d88565b503360008181526004602090815260408083206001600160a01b038b1684529091529020546103fa91610d98565b503360009081526004602090815260408083206001600160a01b038a1684529091529020546104299087610d98565b506040516001600160a01b0387169033907ff37f546c25e850257cc0c94f92bec94a17e2f0e884ddda268a25d8144b70eb6a90600090a350600195945050505050565b60006104ae8484848080601f016020809104026020016040519081016040528093929190818152602001838380828437600092019190915250610d4192505050565b336000908152600360205260409020549091506104cb9082610dab565b3360009081526003602052604090208190556104e690610d88565b503360008181526003602052604090205461050091610d98565b5060405133907fe22de1457cb61fb61b60176bc4235a9abd19466126b46692bc14fc573f09924990600090a250505050565b60006001600160a01b03851661059e5760405162461bcd60e51b815260206004820152602b60248201527f436f6e666964656e7469616c45524332303a207472616e7366657220746f207a60448201526a65726f206164647265737360a81b6064820152608401610321565b60006105e08585858080601f016020809104026020016040519081016040528093929190818152602001838380828437600092019190915250610d4192505050565b336000908152600360205260409020549091506105fd9082610dab565b33600090815260036020526040808220929092556001600160a01b038816815220546106299082610d56565b6001600160a01b03871660009081526003602052604080822092909255338152205461065490610d88565b503360008181526003602052604090205461066e91610d98565b506001600160a01b03861660009081526003602052604090205461069190610d88565b506001600160a01b0386166000908152600360205260409020546106b59087610d98565b506040516001600160a01b0387169033907f4853ae1b4d437c4255ac16cd3ceda3465975023f27cb141584cd9d44440fed8290600090a350600195945050505050565b6000610702610ddd565b905090565b60018054610235906113ac565b60006001600160a01b03861661077a5760405162461bcd60e51b815260206004820152602560248201527f436f6e666964656e7469616c45524332303a207472616e736665722066726f6d604482015264207a65726f60d81b6064820152608401610321565b6001600160a01b0385166107dc5760405162461bcd60e51b815260206004820152602360248201527f436f6e666964656e7469616c45524332303a207472616e7366657220746f207a60448201526265726f60e81b6064820152608401610321565b600061081e8585858080601f016020809104026020016040519081016040528093929190818152602001838380828437600092019190915250610d4192505050565b6001600160a01b038816600090815260046020908152604080832033845290915290205490915061084f9082610dab565b6001600160a01b03881660008181526004602090815260408083203384528252808320949094559181526003909152205461088a9082610dab565b6001600160a01b0380891660009081526003602052604080822093909355908816815220546108b99082610d56565b6001600160a01b03808816600090815260036020908152604080832094909455918a1681526004825282812033825290915220546108f690610d88565b506001600160a01b03871660009081526004602090815260408083203384529091529020546109259088610d98565b506001600160a01b03871660009081526004602090815260408083203380855292529091205461095491610d98565b506001600160a01b03871660009081526003602052604090205461097790610d88565b506001600160a01b03871660009081526003602052604090205461099b9088610d98565b506001600160a01b0386166000908152600360205260409020546109be90610d88565b506001600160a01b0386166000908152600360205260409020546109e29087610d98565b50856001600160a01b0316876001600160a01b03167f4853ae1b4d437c4255ac16cd3ceda3465975023f27cb141584cd9d44440fed8260405160405180910390a360019150505b95945050505050565b60006001600160a01b038516610aa15760405162461bcd60e51b815260206004820152602e60248201527f436f6e666964656e7469616c45524332303a20646563726561736520616c6c6f60448201526d77616e636520666f72207a65726f60901b6064820152608401610321565b6000610ae38585858080601f016020809104026020016040519081016040528093929190818152602001838380828437600092019190915250610d4192505050565b3360009081526004602090815260408083206001600160a01b038b16845290915290205490915061039d9082610dab565b60006001600160a01b038516610b7c5760405162461bcd60e51b815260206004820152602760248201527f436f6e666964656e7469616c45524332303a20617070726f7665207a65726f206044820152666164647265737360c81b6064820152608401610321565b6000610bbe8585858080601f016020809104026020016040519081016040528093929190818152602001838380828437600092019190915250610d4192505050565b3360009081526004602090815260408083206001600160a01b038b168452909152902081905590506103cc81610d88565b6001600160a01b038416610c555760405162461bcd60e51b815260206004820152602760248201527f436f6e666964656e7469616c45524332303a206d696e7420746f207a65726f206044820152666164647265737360c81b6064820152608401610321565b6000610c978484848080601f016020809104026020016040519081016040528093929190818152602001838380828437600092019190915250610d4192505050565b6001600160a01b038616600090815260036020526040902054909150610cbd9082610d56565b6001600160a01b0386166000908152600360205260409020819055610ce190610d88565b506001600160a01b038516600090815260036020526040902054610d059086610d98565b506040516001600160a01b038616907f3c3284d117c92d0b1699230960384e794dcba184cc48ff114fe4fed20c9b056590600090a25050505050565b6000610d4f83836004610e14565b9392505050565b600082610d6a57610d676000610f19565b92505b81610d7c57610d796000610f19565b91505b610d4f83836000610f32565b6000610d948230610ff6565b5090565b6000610da48383610ff6565b5090919050565b600082610dbf57610dbc6000610f19565b92505b81610dd157610dce6000610f19565b91505b610d4f83836000611073565b600046600103610ded5750600190565b4662aa36a703610dfe575061271190565b46617a6903610e0e575060001990565b50600090565b60008051602061146f8339815191525460405163045fc19560e11b815260009160008051602061148f833981519152916001600160a01b03909116906308bf832a90610e6a908890339089908990600401611408565b6020604051808303816000875af1158015610e89573d6000803e3d6000fd5b505050506040513d601f19601f82011682018060405250810190610ead9190611441565b8154604051630f8e573b60e21b8152600481018390523360248201529193506001600160a01b031690633e395cec90604401600060405180830381600087803b158015610ef957600080fd5b505af1158015610f0d573d6000803e3d6000fd5b50505050509392505050565b6000610f2c8263ffffffff1660046110ee565b92915050565b6000808215610f465750600160f81b610f4a565b5060005b60008051602061146f8339815191525460405163022f65e760e31b815260048101879052602481018690526001600160f81b03198316604482015260008051602061148f833981519152916001600160a01b03169063117b2f38906064015b6020604051808303816000875af1158015610fc8573d6000803e3d6000fd5b505050506040513d601f19601f82011682018060405250810190610fec9190611441565b9695505050505050565b600060008051602061148f8339815191528054604051635ca4b5b160e11b8152600481018690526001600160a01b03858116602483015292935091169063b9496b6290604401600060405180830381600087803b15801561105657600080fd5b505af115801561106a573d6000803e3d6000fd5b50505050505050565b60008082156110875750600160f81b61108b565b5060005b60008051602061146f833981519152546040516303056db360e31b815260048101879052602481018690526001600160f81b03198316604482015260008051602061148f833981519152916001600160a01b03169063182b6d9890606401610fa9565b60008051602061146f83398151915254604051639cd07acb60e01b815260009160008051602061148f833981519152916001600160a01b0390911690639cd07acb90611140908790879060040161145a565b6020604051808303816000875af115801561115f573d6000803e3d6000fd5b505050506040513d601f19601f820116820180604052508101906111839190611441565b949350505050565b6000815180845260005b818110156111b157602081850181015186830182015201611195565b506000602082860101526020601f19601f83011685010191505092915050565b602081526000610d4f602083018461118b565b80356001600160a01b03811681146111fb57600080fd5b919050565b60008083601f84011261121257600080fd5b50813567ffffffffffffffff81111561122a57600080fd5b60208301915083602082850101111561124257600080fd5b9250929050565b6000806000806060858703121561125f57600080fd5b611268856111e4565b935060208501359250604085013567ffffffffffffffff81111561128b57600080fd5b61129787828801611200565b95989497509550505050565b6000806000604084860312156112b857600080fd5b83359250602084013567ffffffffffffffff8111156112d657600080fd5b6112e286828701611200565b9497909650939450505050565b60006020828403121561130157600080fd5b610d4f826111e4565b60008060008060006080868803121561132257600080fd5b61132b866111e4565b9450611339602087016111e4565b935060408601359250606086013567ffffffffffffffff81111561135c57600080fd5b61136888828901611200565b969995985093965092949392505050565b6000806040838503121561138c57600080fd5b611395836111e4565b91506113a3602084016111e4565b90509250929050565b600181811c908216806113c057607f821691505b6020821081036113e057634e487b7160e01b600052602260045260246000fd5b50919050565b6054811061140457634e487b7160e01b600052602160045260246000fd5b9052565b8481526001600160a01b03841660208201526080604082018190526000906114329083018561118b565b9050610a2960608301846113e6565b60006020828403121561145357600080fd5b5051919050565b82815260408101610d4f60208301846113e656fe9e7b61f58c47dc699ac88507c4f5bb9f121c03808c5676a8078fe583e46497019e7b61f58c47dc699ac88507c4f5bb9f121c03808c5676a8078fe583e4649700a264697066735822122022a444fabee57693f092d44497e34b3228b3752e7d39424016ecd7c8ab30bd3764736f6c63430008180033",
  "linkReferences": {},
  "deployedLinkReferences": {}
}