{
  "_format": "hh-sol-artifact-1",
  "contractName": "RoleBasedAccess",
  "sourceName": "contracts/access-control/RoleBasedAccess.sol",
  "abi": [
    {
      "inputs": [],
      "stateMutability": "nonpayable",
      "type": "constructor"
    },
    {
      "inputs": [],
      "name": "ZamaProtocolUnsupported",
      "type": "error"
    },
    {
      "anonymous": false,
      "inputs": [
        {
          "indexed": true,
          "internalType": "address",
          "name": "user",
          "type": "address"
        }
      ],
      "name": "RoleAssigned",
      "type": "event"
    },
    {
      "anonymous": false,
      "inputs": [
        {
          "indexed": true,
          "internalType": "address",
          "name": "user",
          "type": "address"
        }
      ],
      "name": "RoleRevoked",
      "type": "event"
    },
    {
      "inputs": [],
      "name": "ROLE_ADMIN",
      "outputs": [
        {
          "internalType": "uint8",
          "name": "",
          "type": "uint8"
        }
      ],
      "stateMutability": "view",
      "type": "function"
    },
    {
      "inputs": [],
      "name": "ROLE_MODERATOR",
      "outputs": [
        {
          "internalType": "uint8",
          "name": "",
          "type": "uint8"
        }
      ],
      "stateMutability": "view",
      "type": "function"
    },
    {
      "inputs": [],
      "name": "ROLE_NONE",
      "outputs": [
        {
          "internalType": "uint8",
          "name": "",
          "type": "uint8"
        }
      ],
      "stateMutability": "view",
      "type": "function"
    },
    {
      "inputs": [],
      "name": "ROLE_USER",
      "outputs": [
        {
          "internalType": "uint8",
          "name": "",
          "type": "uint8"
        }
      ],
      "stateMutability": "view",
      "type": "function"
    },
    {
      "inputs": [],
      "name": "adminFunction",
      "outputs": [],
      "stateMutability": "nonpayable",
      "type": "function"
    },
    {
      "inputs": [
        {
          "internalType": "address",
          "name": "user",
          "type": "address"
        },
        {
          "internalType": "externalEuint8",
          "name": "encryptedRole",
          "type": "bytes32"
        },
        {
          "internalType": "bytes",
          "name": "inputProof",
          "type": "bytes"
        }
      ],
      "name": "assignRole",
      "outputs": [],
      "stateMutability": "nonpayable",
      "type": "function"
    },
    {
      "inputs": [],
      "name": "confidentialProtocolId",
      "outputs": [
        {
          "internalType": "uint256",
          "name": "",
          "type": "uint256"
        }
      ],
      "stateMutability": "view",
      "type": "function"
    },
    {
      "inputs": [],
      "name": "getEncryptedRole",
      "outputs": [
        {
          "internalType": "euint8",
          "name": "",
          "type": "bytes32"
        }
      ],
      "stateMutability": "view",
      "type": "function"
    },
    {
      "inputs": [
        {
          "internalType": "uint8",
          "name": "minRole",
          "type": "uint8"
        }
      ],
      "name": "hasMinimumRole",
      "outputs": [
        {
          "internalType": "bool",
          "name": "",
          "type": "bool"
        }
      ],
      "stateMutability": "view",
      "type": "function"
    },
    {
      "inputs": [],
      "name": "owner",
      "outputs": [
        {
          "internalType": "address",
          "name": "",
          "type": "address"
        }
      ],
      "stateMutability": "view",
      "type": "function"
    },
    {
      "inputs": [
        {
          "internalType": "address",
          "name": "user",
          "type": "address"
        }
      ],
      "name": "revokeRole",
      "outputs": [],
      "stateMutability": "nonpayable",
      "type": "function"
    }
  ],
  "bytecode": "0x608060405234801561001057600080fd5b506100c561001c6100dc565b80517f9e7b61f58c47dc699ac88507c4f5bb9f121c03808c5676a8078fe583e464970080546001600160a01b03199081166001600160a01b039384161790915560208301517f9e7b61f58c47dc699ac88507c4f5bb9f121c03808c5676a8078fe583e46497018054831691841691909117905560408301517f9e7b61f58c47dc699ac88507c4f5bb9f121c03808c5676a8078fe583e46497028054909216921691909117905550565b600180546001600160a01b0319163317905561024f565b6040805160608101825260008082526020820181905291810191909152466001036101375750604080516060808201835260008083526020808401829052928401819052835191820184528082529181018290529182015290565b4662aa36a7036101b75750604080516060808201835260008083526020808401829052928401528251908101835273f0ffdc93b7e186bc2f8cb3daa75d86d1930a433d81527392c920834ec8941d2c77d188936e1f7a6f49c1279181019190915273be0e383937d564d7ff0bc3b46c51f0bf8d5c311a9181019190915290565b46617a6903610236575060408051606080820183526000808352602080840182905292840152825190810183527350157cffd6bbfa2dece204a89ec419c23ef5755d815273e3a9105a3a932253a70f126eb1e3b589c643dd249181019190915273be0e383937d564d7ff0bc3b46c51f0bf8d5c311a9181019190915290565b6040516373cac13b60e01b815260040160405180910390fd5b6108dc8061025e6000396000f3fe608060405234801561001057600080fd5b50600436106100a95760003560e01c80638927b030116100715780638927b030146101055780638da5cb5b1461011b578063b941719e14610146578063c2e84a231461014e578063d391014b1461017b578063e8a3993e1461018357600080fd5b80630288f0fb146100ae5780632f63186a146100cd57806372ed9987146100e257806377cc16e0146100ea57806380e52e3f146100f2575b600080fd5b6100b6600281565b60405160ff90911681526020015b60405180910390f35b6100e06100db36600461071e565b610198565b005b6100e06102ba565b6100b6600081565b6100e06101003660046107a5565b610316565b61010d6103f5565b6040519081526020016100c4565b60015461012e906001600160a01b031681565b6040516001600160a01b0390911681526020016100c4565b6100b6600181565b61016b61015c3660046107c0565b50336000908152602052600190565b60405190151581526020016100c4565b6100b6600381565b3360009081526020819052604090205461010d565b6001546001600160a01b031633146101f25760405162461bcd60e51b81526020600482015260186024820152774f6e6c79206f776e65722063616e2063616c6c207468697360401b60448201526064015b60405180910390fd5b60006102348484848080601f01602080910402602001604051908101604052809392919081815260200183838082843760009201919091525061040492505050565b6001600160a01b0386166000908152602081905260409020819055905061025a81610419565b506001600160a01b03851660009081526020819052604090205461027e9086610429565b506040516001600160a01b038616907f495a519fb1d6f0fa9499bf8fc6490d7ecde41d7f6fd957cd42ec5e237acd85f390600090a25050505050565b6001546001600160a01b031633146103145760405162461bcd60e51b815260206004820152601860248201527f4f6e6c792061646d696e2063616e2063616c6c2074686973000000000000000060448201526064016101e9565b565b6001546001600160a01b0316331461036b5760405162461bcd60e51b81526020600482015260186024820152774f6e6c79206f776e65722063616e2063616c6c207468697360401b60448201526064016101e9565b610375600061043c565b6001600160a01b038216600090815260208190526040902081905561039990610419565b506001600160a01b0381166000908152602081905260409020546103bd9082610429565b506040516001600160a01b038216907f6107a4a5447a4208ba14e3ec240bccf0a93828124ccf501af04601031070b18390600090a250565b60006103ff610452565b905090565b600061041283836002610489565b9392505050565b600061042582306105b2565b5090565b600061043583836105b2565b5090919050565b600061044c8260ff166002610641565b92915050565b6000466001036104625750600190565b4662aa36a703610473575061271190565b46617a6903610483575060001990565b50600090565b7f9e7b61f58c47dc699ac88507c4f5bb9f121c03808c5676a8078fe583e46497015460405163045fc19560e11b81526000917f9e7b61f58c47dc699ac88507c4f5bb9f121c03808c5676a8078fe583e4649700916001600160a01b03909116906308bf832a90610503908890339089908990600401610805565b6020604051808303816000875af1158015610522573d6000803e3d6000fd5b505050506040513d601f19601f820116820180604052508101906105469190610879565b8154604051630f8e573b60e21b8152600481018390523360248201529193506001600160a01b031690633e395cec90604401600060405180830381600087803b15801561059257600080fd5b505af11580156105a6573d6000803e3d6000fd5b50505050509392505050565b60007f9e7b61f58c47dc699ac88507c4f5bb9f121c03808c5676a8078fe583e46497008054604051635ca4b5b160e11b8152600481018690526001600160a01b03858116602483015292935091169063b9496b6290604401600060405180830381600087803b15801561062457600080fd5b505af1158015610638573d6000803e3d6000fd5b50505050505050565b7f9e7b61f58c47dc699ac88507c4f5bb9f121c03808c5676a8078fe583e464970154604051639cd07acb60e01b81526000917f9e7b61f58c47dc699ac88507c4f5bb9f121c03808c5676a8078fe583e4649700916001600160a01b0390911690639cd07acb906106b79087908790600401610892565b6020604051808303816000875af11580156106d6573d6000803e3d6000fd5b505050506040513d601f19601f820116820180604052508101906106fa9190610879565b949350505050565b80356001600160a01b038116811461071957600080fd5b919050565b6000806000806060858703121561073457600080fd5b61073d85610702565b935060208501359250604085013567ffffffffffffffff8082111561076157600080fd5b818701915087601f83011261077557600080fd5b81358181111561078457600080fd5b88602082850101111561079657600080fd5b95989497505060200194505050565b6000602082840312156107b757600080fd5b61041282610702565b6000602082840312156107d257600080fd5b813560ff8116811461041257600080fd5b6054811061080157634e487b7160e01b600052602160045260246000fd5b9052565b8481526000602060018060a01b038616602084015260806040840152845180608085015260005b818110156108485786810183015185820160a00152820161082c565b50600060a0828601015260a0601f19601f8301168501019250505061087060608301846107e3565b95945050505050565b60006020828403121561088b57600080fd5b5051919050565b8281526040810161041260208301846107e356fea26469706673582212203a4dc502096a2f565e24e0f4d01a59fc94f2e2407c929528746340c348fa0bd864736f6c63430008180033",
  "linkReferences": {},
  "deployedLinkReferences": {}
}