{
  "_format": "hh-sol-artifact-1",
  "contractName": "UserDecryptSingleValue",
  "sourceName": "contracts/decryption/UserDecryptSingleValue.sol",
  "abi": [
    {
      "inputs": [],
      "name": "ZamaProtocolUnsupported",
      "type": "error"
    },
    {
      "anonymous": false,
      "inputs": [
        {
          "indexed": true,
          "internalType": "address",
          "name": "user",
          "type": "address"
        }
      ],
      "name": "SecretRetrieved",
      "type": "event"
    },
    {
      "anonymous": false,
      "inputs": [
        {
          "indexed": true,
          "internalType": "address",
          "name": "user",
          "type": "address"
        }
      ],
      "name": "SecretStored",
      "type": "event"
    },
    {
      "inputs": [],
      "name": "clearSecret",
      "outputs": [],
      "stateMutability": "nonpayable",
      "type": "function"
    },
    {
      "inputs": [],
      "name": "confidentialProtocolId",
      "outputs": [
        {
          "internalType": "uint256",
          "name": "",
          "type": "uint256"
        }
      ],
      "stateMutability": "view",
      "type": "function"
    },
    {
      "inputs": [
        {
          "internalType": "uint32",
          "name": "decryptedValue",
          "type": "uint32"
        }
      ],
      "name": "confirmSecretRetrieved",
      "outputs": [],
      "stateMutability": "nonpayable",
      "type": "function"
    },
    {
      "inputs": [],
      "name": "getEncryptedSecret",
      "outputs": [
        {
          "internalType": "euint32",
          "name": "",
          "type": "bytes32"
        }
      ],
      "stateMutability": "view",
      "type": "function"
    },
    {
      "inputs": [
        {
          "internalType": "externalEuint32",
          "name": "encryptedSecret",
          "type": "bytes32"
        },
        {
          "internalType": "bytes",
          "name": "inputProof",
          "type": "bytes"
        }
      ],
      "name": "storeUserSecret",
      "outputs": [],
      "stateMutability": "nonpayable",
      "type": "function"
    },
    {
      "inputs": [
        {
          "internalType": "externalEuint32",
          "name": "newSecret",
          "type": "bytes32"
        },
        {
          "internalType": "bytes",
          "name": "inputProof",
          "type": "bytes"
        }
      ],
      "name": "updateSecret",
      "outputs": [],
      "stateMutability": "nonpayable",
      "type": "function"
    }
  ],
  "bytecode": "0x608060405234801561001057600080fd5b506100c561001c6100ca565b80517f9e7b61f58c47dc699ac88507c4f5bb9f121c03808c5676a8078fe583e464970080546001600160a01b03199081166001600160a01b039384161790915560208301517f9e7b61f58c47dc699ac88507c4f5bb9f121c03808c5676a8078fe583e46497018054831691841691909117905560408301517f9e7b61f58c47dc699ac88507c4f5bb9f121c03808c5676a8078fe583e46497028054909216921691909117905550565b61023d565b6040805160608101825260008082526020820181905291810191909152466001036101255750604080516060808201835260008083526020808401829052928401819052835191820184528082529181018290529182015290565b4662aa36a7036101a55750604080516060808201835260008083526020808401829052928401528251908101835273f0ffdc93b7e186bc2f8cb3daa75d86d1930a433d81527392c920834ec8941d2c77d188936e1f7a6f49c1279181019190915273be0e383937d564d7ff0bc3b46c51f0bf8d5c311a9181019190915290565b46617a6903610224575060408051606080820183526000808352602080840182905292840152825190810183527350157cffd6bbfa2dece204a89ec419c23ef5755d815273e3a9105a3a932253a70f126eb1e3b589c643dd249181019190915273be0e383937d564d7ff0bc3b46c51f0bf8d5c311a9181019190915290565b6040516373cac13b60e01b815260040160405180910390fd5b6108838061024c6000396000f3fe608060405234801561001057600080fd5b50600436106100625760003560e01c8063134197ca146100675780633036923a1461007c5780638927b0301461008f578063a6acce7a146100a9578063cc82b085146100b1578063ff892e37146100c4575b600080fd5b61007a6100753660046106a7565b6100cc565b005b61007a61008a3660046106cd565b610132565b61009761020c565b60405190815260200160405180910390f35b61009761021b565b61007a6100bf3660046106cd565b61025e565b61007a610345565b3360009081526001602052604090205460ff166101045760405162461bcd60e51b81526004016100fb90610749565b60405180910390fd5b60405133907f61391912963a1e51140ff448eb1f7d4aac9e26b06252fa2d0c20108af64927f190600090a250565b3360009081526001602052604090205460ff166101615760405162461bcd60e51b81526004016100fb90610749565b60006101a38484848080601f0160208091040260200160405190810160405280939291908181526020018383808284376000920191909152506103a692505050565b33600090815260208190526040902081905590506101c0816103bb565b50336000818152602081905260409020546101da916103cb565b5060405133907f0977f4c93d6a66455eb4f1467e8a01fec7c62b1ce20353fb51b7269712e1196790600090a250505050565b60006102166103de565b905090565b3360009081526001602052604081205460ff1661024a5760405162461bcd60e51b81526004016100fb90610749565b503360009081526020819052604090205490565b3360009081526001602052604090205460ff16156102cc5760405162461bcd60e51b815260206004820152602560248201527f557365724465637279707453696e676c6556616c75653a207365637265742065604482015264786973747360d81b60648201526084016100fb565b600061030e8484848080601f0160208091040260200160405190810160405280939291908181526020018383808284376000920191909152506103a692505050565b336000908152602081815260408083208481556001808452918420805460ff1916909217909155919052549091506101c0906103bb565b3360009081526001602052604090205460ff166103745760405162461bcd60e51b81526004016100fb90610749565b336000908152600160205260408120805460ff1916905561039490610415565b33600090815260208190526040902055565b60006103b48383600461042e565b9392505050565b60006103c78230610557565b5090565b60006103d78383610557565b5090919050565b6000466001036103ee5750600190565b4662aa36a7036103ff575061271190565b46617a690361040f575060001990565b50600090565b60006104288263ffffffff1660046105e6565b92915050565b7f9e7b61f58c47dc699ac88507c4f5bb9f121c03808c5676a8078fe583e46497015460405163045fc19560e11b81526000917f9e7b61f58c47dc699ac88507c4f5bb9f121c03808c5676a8078fe583e4649700916001600160a01b03909116906308bf832a906104a89088903390899089906004016107ac565b6020604051808303816000875af11580156104c7573d6000803e3d6000fd5b505050506040513d601f19601f820116820180604052508101906104eb9190610820565b8154604051630f8e573b60e21b8152600481018390523360248201529193506001600160a01b031690633e395cec90604401600060405180830381600087803b15801561053757600080fd5b505af115801561054b573d6000803e3d6000fd5b50505050509392505050565b60007f9e7b61f58c47dc699ac88507c4f5bb9f121c03808c5676a8078fe583e46497008054604051635ca4b5b160e11b8152600481018690526001600160a01b03858116602483015292935091169063b9496b6290604401600060405180830381600087803b1580156105c957600080fd5b505af11580156105dd573d6000803e3d6000fd5b50505050505050565b7f9e7b61f58c47dc699ac88507c4f5bb9f121c03808c5676a8078fe583e464970154604051639cd07acb60e01b81526000917f9e7b61f58c47dc699ac88507c4f5bb9f121c03808c5676a8078fe583e4649700916001600160a01b0390911690639cd07acb9061065c9087908790600401610839565b6020604051808303816000875af115801561067b573d6000803e3d6000fd5b505050506040513d601f19601f8201168201806040525081019061069f9190610820565b949350505050565b6000602082840312156106b957600080fd5b813563ffffffff811681146103b457600080fd5b6000806000604084860312156106e257600080fd5b83359250602084013567ffffffffffffffff8082111561070157600080fd5b818601915086601f83011261071557600080fd5b81358181111561072457600080fd5b87602082850101111561073657600080fd5b6020830194508093505050509250925092565b60208082526021908201527f557365724465637279707453696e676c6556616c75653a206e6f2073656372656040820152601d60fa1b606082015260800190565b605481106107a857634e487b7160e01b600052602160045260246000fd5b9052565b8481526000602060018060a01b038616602084015260806040840152845180608085015260005b818110156107ef5786810183015185820160a0015282016107d3565b50600060a0828601015260a0601f19601f83011685010192505050610817606083018461078a565b95945050505050565b60006020828403121561083257600080fd5b5051919050565b828152604081016103b4602083018461078a56fea2646970667358221220968b2d67d49744b1c1a6d4ebd1377ab1be379cd3e20e78b16a6c1387e17eb49864736f6c63430008180033",
  "linkReferences": {},
  "deployedLinkReferences": {}
}