{
  "_format": "hh-sol-artifact-1",
  "contractName": "EncryptMultipleValues",
  "sourceName": "contracts/encryption/EncryptMultipleValues.sol",
  "abi": [
    {
      "inputs": [],
      "name": "ZamaProtocolUnsupported",
      "type": "error"
    },
    {
      "anonymous": false,
      "inputs": [
        {
          "indexed": true,
          "internalType": "address",
          "name": "user",
          "type": "address"
        }
      ],
      "name": "ProfileCreated",
      "type": "event"
    },
    {
      "inputs": [],
      "name": "confidentialProtocolId",
      "outputs": [
        {
          "internalType": "uint256",
          "name": "",
          "type": "uint256"
        }
      ],
      "stateMutability": "view",
      "type": "function"
    },
    {
      "inputs": [
        {
          "internalType": "externalEuint32",
          "name": "balance",
          "type": "bytes32"
        },
        {
          "internalType": "externalEuint8",
          "name": "tier",
          "type": "bytes32"
        },
        {
          "internalType": "externalEuint32",
          "name": "score",
          "type": "bytes32"
        },
        {
          "internalType": "bytes",
          "name": "balanceProof",
          "type": "bytes"
        },
        {
          "internalType": "bytes",
          "name": "tierProof",
          "type": "bytes"
        },
        {
          "internalType": "bytes",
          "name": "scoreProof",
          "type": "bytes"
        }
      ],
      "name": "createProfile",
      "outputs": [],
      "stateMutability": "nonpayable",
      "type": "function"
    },
    {
      "inputs": [],
      "name": "getBalance",
      "outputs": [
        {
          "internalType": "euint32",
          "name": "",
          "type": "bytes32"
        }
      ],
      "stateMutability": "view",
      "type": "function"
    },
    {
      "inputs": [],
      "name": "getScore",
      "outputs": [
        {
          "internalType": "euint32",
          "name": "",
          "type": "bytes32"
        }
      ],
      "stateMutability": "view",
      "type": "function"
    },
    {
      "inputs": [],
      "name": "getTier",
      "outputs": [
        {
          "internalType": "euint8",
          "name": "",
          "type": "bytes32"
        }
      ],
      "stateMutability": "view",
      "type": "function"
    },
    {
      "inputs": [
        {
          "internalType": "address",
          "name": "user",
          "type": "address"
        }
      ],
      "name": "hasProfile",
      "outputs": [
        {
          "internalType": "bool",
          "name": "",
          "type": "bool"
        }
      ],
      "stateMutability": "view",
      "type": "function"
    },
    {
      "inputs": [
        {
          "internalType": "externalEuint32",
          "name": "newBalance",
          "type": "bytes32"
        },
        {
          "internalType": "externalEuint8",
          "name": "newTier",
          "type": "bytes32"
        },
        {
          "internalType": "externalEuint32",
          "name": "newScore",
          "type": "bytes32"
        },
        {
          "internalType": "bytes",
          "name": "balanceProof",
          "type": "bytes"
        },
        {
          "internalType": "bytes",
          "name": "tierProof",
          "type": "bytes"
        },
        {
          "internalType": "bytes",
          "name": "scoreProof",
          "type": "bytes"
        }
      ],
      "name": "updateProfile",
      "outputs": [],
      "stateMutability": "nonpayable",
      "type": "function"
    }
  ],
  "bytecode": "0x608060405234801561001057600080fd5b506100c561001c6100ca565b80517f9e7b61f58c47dc699ac88507c4f5bb9f121c03808c5676a8078fe583e464970080546001600160a01b03199081166001600160a01b039384161790915560208301517f9e7b61f58c47dc699ac88507c4f5bb9f121c03808c5676a8078fe583e46497018054831691841691909117905560408301517f9e7b61f58c47dc699ac88507c4f5bb9f121c03808c5676a8078fe583e46497028054909216921691909117905550565b61023d565b6040805160608101825260008082526020820181905291810191909152466001036101255750604080516060808201835260008083526020808401829052928401819052835191820184528082529181018290529182015290565b4662aa36a7036101a55750604080516060808201835260008083526020808401829052928401528251908101835273f0ffdc93b7e186bc2f8cb3daa75d86d1930a433d81527392c920834ec8941d2c77d188936e1f7a6f49c1279181019190915273be0e383937d564d7ff0bc3b46c51f0bf8d5c311a9181019190915290565b46617a6903610224575060408051606080820183526000808352602080840182905292840152825190810183527350157cffd6bbfa2dece204a89ec419c23ef5755d815273e3a9105a3a932253a70f126eb1e3b589c643dd249181019190915273be0e383937d564d7ff0bc3b46c51f0bf8d5c311a9181019190915290565b6040516373cac13b60e01b815260040160405180910390fd5b610a198061024c6000396000f3fe608060405234801561001057600080fd5b506004361061007d5760003560e01c80638927b0301161005b5780638927b030146100ba578063a787c80b146100c2578063afd8206714610101578063f2d10f5d1461010957600080fd5b806312065fe01461008257806352a3f5081461009d5780635ad701c2146100b2575b600080fd5b61008a61011c565b6040519081526020015b60405180910390f35b6100b06100ab36600461081c565b61016b565b005b61008a610359565b61008a6103a2565b6100f16100d03660046108d5565b6001600160a01b031660009081526020819052604090206003015460ff1690565b6040519015158152602001610094565b61008a6103b1565b6100b061011736600461081c565b6103fa565b3360009081526020819052604081206003015460ff166101575760405162461bcd60e51b815260040161014e906108fe565b60405180910390fd5b503360009081526020819052604090205490565b3360009081526020819052604090206003015460ff1661019d5760405162461bcd60e51b815260040161014e906108fe565b60006101df8a88888080601f01602080910402602001604051908101604052809392919081815260200183838082843760009201919091525061059e92505050565b905060006102238a87878080601f0160208091040260200160405190810160405280939291908181526020018383808284376000920191909152506105b392505050565b905060006102678a86868080601f01602080910402602001604051908101604052809392919081815260200183838082843760009201919091525061059e92505050565b336000908152602081905260409020848155600181018490556002018190559050610291836105c1565b50336000818152602081905260409020546102ab916105d1565b50336000908152602081905260409020600101546102c8906105c1565b50336000818152602081905260409020600101546102e5916105d1565b5033600090815260208190526040902060020154610302906105c1565b503360008181526020819052604090206002015461031f916105d1565b5060405133907ff10ec97e920cde75887622583772c637595a40b1f7777c18e51ea36cd127475c90600090a2505050505050505050505050565b3360009081526020819052604081206003015460ff1661038b5760405162461bcd60e51b815260040161014e906108fe565b503360009081526020819052604090206001015490565b60006103ac6105e4565b905090565b3360009081526020819052604081206003015460ff166103e35760405162461bcd60e51b815260040161014e906108fe565b503360009081526020819052604090206002015490565b3360009081526020819052604090206003015460ff161561046b5760405162461bcd60e51b815260206004820152602560248201527f456e63727970744d756c7469706c6556616c7565733a2070726f66696c652065604482015264786973747360d81b606482015260840161014e565b60006104ad8a88888080601f01602080910402602001604051908101604052809392919081815260200183838082843760009201919091525061059e92505050565b905060006104f18a87878080601f0160208091040260200160405190810160405280939291908181526020018383808284376000920191909152506105b392505050565b905060006105358a86868080601f01602080910402602001604051908101604052809392919081815260200183838082843760009201919091525061059e92505050565b604080516080810182528581526020808201868152828401858152600160608501818152336000908152948590529590932093518085559151928401929092559051600283015591516003909101805460ff1916911515919091179055909150610291906105c1565b60006105ac8383600461061b565b9392505050565b60006105ac8383600261061b565b60006105cd8230610744565b5090565b60006105dd8383610744565b5090919050565b6000466001036105f45750600190565b4662aa36a703610605575061271190565b46617a6903610615575060001990565b50600090565b7f9e7b61f58c47dc699ac88507c4f5bb9f121c03808c5676a8078fe583e46497015460405163045fc19560e11b81526000917f9e7b61f58c47dc699ac88507c4f5bb9f121c03808c5676a8078fe583e4649700916001600160a01b03909116906308bf832a9061069590889033908990899060040161093f565b6020604051808303816000875af11580156106b4573d6000803e3d6000fd5b505050506040513d601f19601f820116820180604052508101906106d891906109ca565b8154604051630f8e573b60e21b8152600481018390523360248201529193506001600160a01b031690633e395cec90604401600060405180830381600087803b15801561072457600080fd5b505af1158015610738573d6000803e3d6000fd5b50505050509392505050565b60007f9e7b61f58c47dc699ac88507c4f5bb9f121c03808c5676a8078fe583e46497008054604051635ca4b5b160e11b8152600481018690526001600160a01b03858116602483015292935091169063b9496b6290604401600060405180830381600087803b1580156107b657600080fd5b505af11580156107ca573d6000803e3d6000fd5b50505050505050565b60008083601f8401126107e557600080fd5b50813567ffffffffffffffff8111156107fd57600080fd5b60208301915083602082850101111561081557600080fd5b9250929050565b600080600080600080600080600060c08a8c03121561083a57600080fd5b8935985060208a0135975060408a0135965060608a013567ffffffffffffffff8082111561086757600080fd5b6108738d838e016107d3565b909850965060808c013591508082111561088c57600080fd5b6108988d838e016107d3565b909650945060a08c01359150808211156108b157600080fd5b506108be8c828d016107d3565b915080935050809150509295985092959850929598565b6000602082840312156108e757600080fd5b81356001600160a01b03811681146105ac57600080fd5b60208082526021908201527f456e63727970744d756c7469706c6556616c7565733a206e6f2070726f66696c6040820152606560f81b606082015260800190565b8481526000602060018060a01b038616602084015260806040840152845180608085015260005b818110156109825786810183015185820160a001528201610966565b50600060a0828601015260a0601f19601f83011685010192505050605483106109bb57634e487b7160e01b600052602160045260246000fd5b82606083015295945050505050565b6000602082840312156109dc57600080fd5b505191905056fea26469706673582212206c1bdf9312d7b3c920c3de46b8260d0349730d442693d4d43acdf228e2c466b964736f6c63430008180033",
  "linkReferences": {},
  "deployedLinkReferences": {}
}